:100000000C943F000C947E000C9490000C946700BC
:100010000C9467000C9467000C9467000C946700C4
:100020000C9467000C9467000C9467000C946700B4
:100030000C9467000C9467000C9467000C946700A4
:100040000C9467000C9467000C9467000C94670094
:100050000C9467000C9467000C9467000C94670084
:100060000C9467000C9467000C9467000C94670074
:100070000C9467000C9467000C94670025131124FE
:100080001FBECFEFD8E0DEBFCDBF15E0A0E0B1E0EE
:10009000E0E0F1E302C005900D92A235B107D9F777
:1000A00025E0A2E5B5E001C01D92AC35B207E1F74D
:1000B00010E0CFE3D0E004C02197FE010E9462135C
:1000C000CE33D107C9F70E9490120C947E180C947D
:1000D000000084B1836084B98AB1836F8AB90895BE
:1000E000F8940E9469008DB383608DBBE9E6F0E06F
:1000F00080818360808378940C9426128F938FB7CD
:100100008F939F938FE59AEE0197F1F700C000005F
:1001100081E0809353059F918F918FBF8F911895A8
:100120008F938FB78F939F938FE59AEE0197F1F797
:1001300000C0000081E0809352059F918F918FBF96
:100140008F911895FC01718360830895FC01CB01A8
:1001500062307105B1F034F4892B41F061307105E2
:1001600059F008956330710511F108950190F081FF
:10017000E02D82E0808308950190F081E02D81E000
:10018000F9CFA081B18182E08C938FE097E2019753
:10019000F1F700C000000190F081E02D81E0808344
:1001A0008FE097E20197F1F700C0000008950190F9
:1001B000F081E02D10820895FC01CB0162307105C1
:1001C00069F03CF4892BD9F16130710509F440C024
:1001D00008956330710509F43FC00895A081B1818D
:1001E00092E09C93AFE0B7E21197F1F700C00000F6
:1001F000A081B18181E08C93AFE0B7E21197F1F774
:1002000000C00000A081B1819C93AFE0B7E21197DC
:10021000F1F700C00000A081B1818C938FE097E2DC
:100220000197F1F700C000000190F081E02D1082ED
:10023000AFE5BAEE1197F1F700C000000895A08174
:10024000B18182E08C938FE39CE90197F1F7EACFCB
:10025000A081B18181E0F6CF0190F081E02D108284
:10026000089508950F931F93CF93DF930F92CDB707
:10027000DEB78C01CE0101960E949904F8014281FB
:1002800060817181CB01019691838083CE010196BB
:100290000E9470058FE097E20197F1F700C000001F
:1002A000F80160817181CB0101969183808340E0E8
:1002B000CE0101960E9470058FE097E20197F1F759
:1002C00000C00000F80160817181CB01019691832B
:1002D000808340E0CE0101960E9470058FE097E296
:1002E0000197F1F700C00000CE0101960E948F0433
:1002F0000F90DF91CF911F910F9108952F923F9210
:100300004F925F926F927F928F929F92AF92BF9225
:10031000CF92DF92EF92FF920F931F93CF93DF93D1
:10032000CDB7DEB7CE50D1400FB6F894DEBF0FBECA
:10033000CDBF1C01C95FDE4F6883C750D140C85F85
:10034000DE4F7883C850D140C95FDE4F88819981E4
:10035000C750D140892B09F49EC0E1E0F0E0C55FB1
:10036000DE4FF983E883CB50D140C75FDE4F19825F
:100370001882C950D1406E0191E0C90ED91EC60144
:100380000E9464123E01EBEF6E0E711C65E270E09C
:10039000C3010E94A2004E01FFEE8F0E911C26E0C9
:1003A00047E06BE270E0C4010E948B07CE0101962A
:1003B0000E94EB0A0E942612CE0193950E94990496
:1003C00010E000E0B12CF12CCA5FDE4F1882C6505D
:1003D000D140AC2C5D2CD62CC72CE82CC101049646
:1003E000C35FDE4F99838883CD50D140FE01EF5229
:1003F000FF4FCE5FDE4FF983E883C250D140CE017C
:100400008D549F4FCC5FDE4F99838883C450D14079
:100410003E0195E9690E711C60E08A2D952D0E94C0
:100420006D120230110509F42AC10CF043C0011508
:10043000110509F460C00130110571F760E08A2DE3
:10044000952D0E946D129695879596958795182FF4
:10045000CA5FDE4FF881C650D140F11101C0482E6D
:100460008F50873308F0DBC040E050E068EC72E466
:100470008E2D992D0E94A507BB24B39481E01F30D7
:1004800008F480E0082F10E091E0CA5FDE4F988307
:10049000C650D140C1CFC55FDE4F19821882CB5004
:1004A000D14081E090E0C75FDE4F99838883C950D7
:1004B000D14061CF0330110509F0AECF9FEFE1E1EC
:1004C000FAE79150E040F040E1F700C00000F10190
:1004D00083818111D6C11AE062E070E08D2D9C2DE0
:1004E0000E94DC001150C1F763E070E08D2D9C2D5F
:1004F0000E94A600ECC160E08A2D952D0E946D122D
:10050000969587959695879531EF380F373308F490
:1005100004C28634A8F1CA5FDE4FE881C650D140DC
:10052000E11101C0482E8E2D992D0E94670903E02C
:1005300010E061E5CE0101960E94F70AFFEF22E587
:1005400087E0F15020408040E1F700C00000CE017C
:1005500001960E944D0B9FEFE2E5F7E09150E040DD
:10056000F040E1F700C000000150110911F702E06E
:1005700010E021E0CA5FDE4F2883C650D1404CCF47
:1005800020E030E048EC52E4BB2049F1C75FDE4F89
:1005900068817981C950D1408E2D992D0E942508FE
:1005A0008FEC97E00197F1F700C00000FA94FA94FD
:1005B0008E2D992D0E9467099FE7EEEDFFE0915087
:1005C000E040F040E1F700C0000080E58F1528F41E
:1005D00081E0F101838303E010E0B12C1DCFC55F02
:1005E000DE4F68817981CB50D1408E2D992D0E94AC
:1005F00025082FEF80E792E0215080409040E1F7FE
:1006000000C00000F3948E2D992D0E946709EFE73A
:10061000FEED2FE0E150F0402040E1F7D4CF16345A
:1006200008F42CCF8E2D992D0E94670903E010E06D
:1006300061E5CE0101960E94F70A2FEF82E597E06F
:10064000215080409040E1F700C00000CE010196AB
:100650000E944D0BEFEFF2E527E0E150F040204023
:10066000E1F700C000000150110911F702E010E0AD
:1006700081E0CA5FDE4F8883C650D140CDCE6F2D5A
:10068000C35FDE4F88819981CD50D1400E949A0985
:10069000182F092F282F392F442DC95FDE4F68816D
:1006A0007981C750D140C35FDE4F88819981CD5099
:1006B000D1400E941C0AAE0141505F4F60E070E0E3
:1006C000CE0193950E94AA041F92FF920F931F934D
:1006D000F1018581282F082E000C330B3F938F9357
:1006E0008481282F082E000C330B3F938F9387E5CE
:1006F00093E09F938F93CD5FDE4FF881C350D1403D
:10070000FF93CE5FDE4F2881C250D1402F930E94CD
:10071000AD15CE018F529F4F0E9442128FE097E29B
:100720000197F1F700C00000AE0141505F4F60E05B
:1007300070E0CE0193950E94AA041F924F92C1507F
:10074000DF4F8881CF5FD0401F928F9382E893E084
:100750009F938F93CB5FDE4F9881C550D1409F937D
:10076000CC5FDE4FE881C450D140EF930E94AD15BD
:10077000CE018D549F4F0E944212F1016081718120
:1007800061507109AE0143505F4FCE0193950E94B5
:10079000AA04F1016081718162507109AE01425079
:1007A0005F4FCE0193950E94AA04C350DF4F88810A
:1007B000CD5FD0401F928F93C250DF4F8881CE5FB4
:1007C000D0401F928F9309EA13E01F930F937F92FB
:1007D0006F920E94AD15C3010E944212C350DF4FB9
:1007E0008881CD5FD0401F928F93C250DF4F8881A8
:1007F000CE5FD0401F928F931F930F937F926F9283
:100800000E94AD150FB6F894DEBF0FBECDBFC30179
:100810000E944212F101448160817181CB010196F5
:1008200091838083CE0193950E9470058FE097E2BB
:100830000197F1F700C00000F101458160817181ED
:10084000CB01019691838083CE0193950E94700520
:100850008FE097E20197F1F700C00000F1014281BB
:100860004F5F428360E070E0CE0193950E94700577
:100870008FE097E20197F1F700C0000003E010E07D
:10088000CBCD6DE2CE0101960E94F70AFFEF23ED7A
:1008900080E3F15020408040E1F700C00000CE012D
:1008A00001960E944D0B1AE070E060E08D2D9C2DAA
:1008B0000E94DC001150C1F763E070E08D2D9C2D8B
:1008C0000E94A600F1018381882309F404CECE01A1
:1008D00093950E948F048D2D9C2D0E9431018A2DAD
:1008E000952D0E946A12C25FDE4F0FB6F894DEBFEC
:1008F0000FBECDBFDF91CF911F910F91FF90EF9071
:10090000DF90CF90BF90AF909F908F907F906F902F
:100910005F904F903F902F90089501E0B0CF0895E1
:1009200080EA809300011092B90080E28093B800C1
:100930000895FC0180E88083CF010C949004982FE7
:100940009370891305C0880F806A80930001089511
:100950008FEF0895FA0194EA24E89093BC00809107
:10096000BC0087FFFCCF809100018093BB002093E7
:10097000BC008091BC0087FFFCCF8091B90088311A
:1009800061F784EA8093BC008091BC0087FFFCCFB4
:10099000809100018093BB0084E88093BC0080912B
:1009A000BC0087FFFCCF7093BB0084E88093BC0041
:1009B0008091BC0087FFFCCF6093BB0084E88093EC
:1009C000BC008091BC0087FFFCCF8091BC0087FFFA
:1009D000FCCF84EA8093BC008091BC0087FFFCCFF1
:1009E000809100018F5F8093BB0084E88093BC00FE
:1009F0008091BC0087FFFCCF84E88093BC0080918D
:100A0000BC0087FFFCCF8091BB00808384E980938A
:100A1000BC0080E0089594EA34E89093BC00809193
:100A2000BC0087FFFCCF809100018093BB00309316
:100A3000BC008091BC0087FFFCCF8091B900883159
:100A400061F784EA8093BC008091BC0087FFFCCFF3
:100A5000809100018093BB0084E88093BC0080916A
:100A6000BC0087FFFCCF7093BB0084E88093BC0080
:100A70008091BC0087FFFCCF6093BB0084E880932B
:100A8000BC008091BC0087FFFCCF84EA8093BC004F
:100A90008091BC0087FFFCCF809100018F5F809325
:100AA000BB0084E88093BC008091BC0087FFFCCF32
:100AB00084EC211105C084E98093BC0080E0089596
:100AC000213009F484E88093BC009091BC0097FF2A
:100AD000FCCFFA019091BB0091932150AF01E9CF77
:100AE00094EA24E89093BC008091BC0087FFFCCF7F
:100AF000809100018093BB002093BC008091BC00DA
:100B000087FFFCCF8091B900883161F784EA809338
:100B1000BC008091BC0087FFFCCF809100018093D6
:100B2000BB0084E88093BC008091BC0087FFFCCFB1
:100B30007093BB0084E88093BC008091BC0087FF69
:100B4000FCCF6093BB0084E88093BC008091BC0024
:100B500087FFFCCF4093BB0084E88093BC0080916A
:100B6000BC0087FFFCCF84E98093BC0080E008953F
:100B7000FB01260F372F311DDC018C918150990B21
:100B8000862B9F2B2817390718F09C012F5F3F4FAA
:100B9000822F8E1B24EA34E82093BC009091BC0085
:100BA00097FFFCCF909100019093BB003093BC0065
:100BB0009091BC0097FFFCCF9091B900983161F7FC
:100BC00094EA9093BC009091BC0097FFFCCF909169
:100BD00000019093BB0094E89093BC009091BC00FE
:100BE00097FFFCCFF093BB0094E89093BC009091EA
:100BF000BC0097FFFCCFE093BB0094E89093BC004F
:100C00009091BC0097FFFCCF982F24E8911104C06D
:100C100094E99093BC000895FA0131913093BB00A0
:100C20002093BC003091BC0037FFFCCF9150AF0146
:100C3000EDCFDF92EF92FF920F931F93CF93DF934D
:100C4000D82ED92F7B018A01C22F2C2FA801B701E2
:100C50008D2D9D2F0E94B805282F30E0E20EF31E47
:100C6000C81B020F131FC111F0CF80E0DF91CF919D
:100C70001F910F91FF90EF90DF900895BF92CF9258
:100C8000DF92EF92FF920F931F93CF93DF9300D0E9
:100C900000D0CDB7DEB7B82EE92EF62E8E010F5F4D
:100CA0001F4FC8010E94800B82E00E943B122FEF71
:100CB00084E39CE0215080409040E1F700C00000B8
:100CC00022EC33E04AEB56E061E0C8010E94190CC7
:100CD0004F2D6B2D7E2DC8010E942C0DC12CD12CC7
:100CE00028EC33E04D2D6C2DC8010E94A40CD39448
:100CF000E4E0DE12F5CFC394F8E0CF12F0CF2EEC93
:100D000033E040E060E0C8010E94A40CCB2CDE2C54
:100D1000E12CEF101AC0C8010E94C11183E00E94AB
:100D20003B12C8010E94EB1184E00E943B120F901D
:100D30000F900F900F90DF91CF911F910F91FF9027
:100D4000EF90DF90CF90BF900895F601619171917F
:100D50006F01C8010E94EA0CE394DBCF6F927F928F
:100D60008F929F92AF92BF92CF92DF92EF92FF92BB
:100D70000F931F93CF93DF93CDB7DEB72A970FB6AC
:100D8000F894DEBF0FBECDBF4C015B012DB73EB75F
:100D90003A87298765E270E0AE014F5F5F4F6A01D5
:100DA000CA010E94A2007E0156E0E50EF11CC701B7
:100DB0000E949904860137018114910431F18A94CB
:100DC000892809F444C0C3010E948F04C8010E940D
:100DD000310189859A850FB6F8949EBF0FBE8DBFED
:100DE0002A960FB6F894DEBF0FBECDBFDF91CF912C
:100DF0001F910F91FF90EF90DF90CF90BF90AF9039
:100E00009F908F907F906F900895F5018081811160
:100E10000EC06AEFF62E62E070E0C8010E94A600E4
:100E2000FA94F110F8CF81E0F5018083CCCF54E63D
:100E3000F52E62E070E0C8010E94DC00FA94F11027
:100E4000F8CF63E070E0C8010E94A600BCCF61E06B
:100E500070E0C6010E94A600FFEF23ED30E3F150E1
:100E600020403040E1F700C00000AE014B5F5F4F13
:100E700070E060E0C7010E94AA044DB75EB75887D2
:100E80004F838D8190E09C01220F331FEDB7FEB799
:100E9000E21BF30B0FB6F894FEBF0FBEEDBF2DB7EC
:100EA0003EB72F5F3F4F7901F901019788F4D12CAC
:100EB00023E0C22E6D81D61678F0C7010E943E064F
:100EC0004F8158850FB6F8945EBF0FBE4DBF7BCFE4
:100ED000108211823296E9CF6C2D70E0AE014C5F2A
:100EE0005F4FC3010E94AA0461E06C0D70E0C394DF
:100EF000C394AE014D5F5F4FC3010E94AA04ED2D64
:100F0000F0E08B81EE0FFF1FEE0DFF1D9C819083A3
:100F10008183D394CFCF0F931F93CF93DF93EC01B3
:100F2000042F122F798768870E946B0A0A871B8714
:100F30001C821D821E821F82188219821A821B82C5
:100F4000DF91CF911F910F910895CF93DF9300D040
:100F500000D0CDB7DEB7FC01CA01DB0184839583E5
:100F6000A683B78380839183A283B383A085B18551
:100F70004C91228581E090E0BC0102C0660F771F92
:100F80002A95E2F79B01209524232C93A085B18517
:100F90002C91338501C0880F3A95EAF7809582231A
:100FA0008C93208131814281538184819581A681F6
:100FB000B78189839A83AB83BC83BC01CD010F9039
:100FC0000F900F900F90DF91CF910C94780ACF93F0
:100FD000DF9300D000D0CDB7DEB7FC01CA01DB0142
:100FE00084839583A683B78380839183A283B3830D
:100FF000A085B1852C91328581E090E0AC0101C0E3
:10100000440F3A95EAF7242B2C93A085B1852C91B7
:10101000338501C0880F3A95EAF7822B8C932081A3
:1010200031814281538184819581A681B7818983F1
:101030009A83AB83BC83BC01CD010F900F900F90BE
:101040000F90DF91CF910C94780AEF92FF920F935B
:101050001F93CF93DF9300D000D0CDB7DEB7FC0154
:10106000CB01F22EE32E742F652F009741F18130D2
:10107000910509F43FC00F2D1E2D272F362F048315
:1010800015832683378300831183228333832F2D97
:101090003E2D472F562FF982EA827B836C8369812C
:1010A0007A818B819C810F900F900F900F90DF9130
:1010B000CF911F910F91FF90EF900C94780A0085CB
:1010C0001185D8012C91328581E090E0AC0101C0FE
:1010D000440F3A95EAF7242B2C9340855185DA0189
:1010E0002C91338501C0880F3A95EAF780958223C9
:1010F0008C93C1CF00851185D8014C912285DC01EC
:1011000002C0AA0FBB1F2A95E2F79D012095242358
:10111000D8012C9340855185DA012C91338501C08B
:10112000880F3A95EAF7822BE3CF9F92AF92BF9256
:10113000CF92DF92EF92FF920F931F93CF93DF93A3
:1011400000D000D000D0CDB7DEB78D839E83942E23
:10115000A52ED02E790120E030E0A9019982AA8243
:101160006B837C8369817A818B819C810E94D513FA
:1011700000E087FD14C020E030E04FE753E46981D0
:101180007A818B819C810E9434150FEF18163CF0F8
:1011900069817A818B819C810E945314062F20E003
:1011A00030E0A901D9821A83EB82FC8269817A81BD
:1011B0008B819C810E94D51360E087FD13C020E0E5
:1011C00030E04FE753E469817A818B819C810E94F2
:1011D00034156FEF181634F069817A818B819C8108
:1011E0000E945314AD81BE811896ED91FC91199720
:1011F00040811A962C9181E090E0DC0102C0AA0F98
:10120000BB1F2A95E2F79D01209524232083AD8101
:10121000BE811896ED91FC91199720811B963C9107
:1012200001C0880F3A95EAF7809582238083862F44
:1012300090E0B0E0A0E089839A83AB83BC83BC01DB
:10124000CD010E948214D62EE72EF82E192F862F5C
:101250009E2DAF2DB12FED81FE8184839583A683D2
:10126000B783802F90E0B0E0A0E089839A83AB83BE
:10127000BC83BC01CD010E948214F62FE72F462FBC
:10128000572FBC01AD81BE814D935D936D937C93CF
:1012900013972F2F3E2FAC01D982EA82FB821C8349
:1012A00069817A818B819C8126960FB6F894DEBF86
:1012B0000FBECDBFDF91CF911F910F91FF90EF90A7
:1012C000DF90CF90BF90AF909F900C94780A20E071
:1012D00030E0A901CA01B9010C94780ACF93DF93D9
:1012E00000D000D0CDB7DEB7462F572FBC014983C1
:1012F0005A836B837C8320E030E0A90169817A8185
:101300008B819C810E94D51387FF09C089819A81B6
:10131000AB81BC81B05889839A83AB83BC836981DC
:101320007A818B819C810F900F900F900F90DF91AD
:10133000CF910895CF92DF92EF92FF920F931F9378
:10134000CF93DF93CDB7DEB72A970FB6F894DEBF01
:101350000FBECDBF28E631E0629FC001639F900DB4
:1013600011246BE470E00E943A138B01C12CD12C44
:101370008BE3E82EFF24F3941A861986C801012E08
:10138000000CAA0BBB0B89839A83AB83BC83BC0183
:10139000CD010E948414462F572FBC014D835E83DC
:1013A0006F83788717FF07C0DC01CA01B0588D83AF
:1013B0009E83AF83B887C7010F2C000CAA0BBB0B11
:1013C00089839A83AB83BC83BC01CD010E948414C2
:1013D0002D813E814F81588569837A838B839C83DD
:1013E00069817A818B819C810E94341518164CF496
:1013F0006D817E818F8198850E944C147B01C98408
:10140000DA84A985BA859D96BA87A9870D521109F4
:10141000A836B14009F0B2CFC6012A960FB6F894AB
:10142000DEBF0FBECDBFDF91CF911F910F91FF9017
:10143000EF90DF90CF900895FC01CB0193838283DE
:10144000009721F0019769F180E034C0243B310519
:1014500099F1D0F42A35310589F140F4211531058F
:10146000A1F12D32310581F781E02DC081E02738CF
:10147000310551F79FEF31812081493240F1930FBF
:10148000820F9183808308952E3081E03807C1F068
:101490002B3381E03807B1F08FEF213E310551F356
:1014A000D3CF2D32310501F32A35310571F081E0BA
:1014B000232B51F690E0DFCF80E0DCCF81E0FACF44
:1014C0008FEFF8CF8FEF91E0D6CF80E0FCCF990F70
:1014D000930F880FD5CFE0E8F0E08081816A8083A8
:1014E000E1E8F0E0808182608083109282000895BC
:1014F000EF92FF920F931F93CF93DF9300D000D012
:1015000000D0CDB7DEB779014E835D8320E030E0B7
:1015100048EC52E469837A838B839C8369817A8166
:101520008B819C810E94DA1320E030E04FE753E486
:1015300069837A838B839C8369817A818B819C8187
:101540000E94391569837A838B839C8369817A81B0
:101550008B819C810E945314709389006093880052
:1015600020E030E048EC52E4E982FA828E818B83FD
:101570008D818C8369817A818B819C810E94DA13B1
:1015800020E030E04FE753E469837A838B839C83C8
:1015900069817A818B819C810E94391569837A8364
:1015A0008B839C8369817A818B819C810E945314F7
:1015B000462F572F50938B0040938A0026960FB6E4
:1015C000F894DEBF0FBECDBFDF91CF911F910F9179
:1015D000FF90EF900895DC0184E9E1E0F1E00190F3
:1015E0000D928A95E1F784B1886284B90895CF930A
:1015F000DF9300D000D0CDB7DEB79C0183ED860F1E
:10160000853208F043C06D52770B660F771F660F67
:10161000771F260F371FF9012081318142815381C5
:1016200060E074E284EF9AE40E94DA1320E030E094
:1016300040E05FE369837A838B839C8369817A814D
:101640008B819C810E94391520E030E040E85BE30B
:1016500069837A838B839C8369817A818B819C8166
:101660000E94391569837A838B839C8369817A818F
:101670008B819C810E94531467BD2D9884B5826430
:1016800084BD84B58F7784BD84E085BD0F900F90B5
:101690000F900F90DF91CF91089514BC0895CF93D0
:1016A000DF93E72FF0E070E0EF01C91BD109242F91
:1016B00030E0261B370BC29FD001C39FB00DD29FD5
:1016C000B00D1124681B7109852F90E08E1B9F0BB4
:1016D000689F9001699F300D789F300D1124CD01D6
:1016E000821B930BA217B30729F0181619062CF0CA
:1016F00082E090E0DF91CF91089581E090E0FACF11
:101700004FEF5FEFBA01FC01408351836283738323
:101710000C942612CF92DF92EF92FF92362F272F52
:10172000BA01832F922F28E06B017C0131E0C322A4
:10173000DD24EE24FF249695879577956795CD282F
:10174000CE28CF2841F030E2632733E8732738EB07
:1017500083273DEE9327215039F7FF90EF90DF90DC
:10176000CF900895AF92BF92CF92DF92EF92FF9207
:101770000F931F93CF93DF9300D000D000D0CDB74D
:10178000DEB78C016D837E83ED81FE8101900020A8
:10179000E9F731978D819E81E81BF90B5C01AE0E54
:1017A000B11CED81FE81EA15FB0589F426960FB682
:1017B000F894DEBF0FBECDBFDF91CF911F910F9187
:1017C000FF90EF90DF90CF90BF90AF900895D80139
:1017D000CD90DD90ED90FC90ED81FE818191FE83B6
:1017E000ED83B701A6014827552766277727C8014B
:1017F0000E948A0B69837A838B839C83CD2CDE2C99
:10180000EF2CFF24C626D726E826F926D801CD924C
:10181000DD92ED92FC921397C4CFCF93DF93D62F36
:10182000C72F0E94B20B8D2F9C2FDF91CF910C946C
:101830004212BF92CF92DF92EF92FF920F931F93CB
:10184000CF93DF93CDB7DEB7C05ED1400FB6F8942B
:10185000DEBF0FBECDBF8C01F62EE42ED52EC22EDC
:10186000B32E84E6E5E9F1E0DE01A759BE4F019011
:101870000D928A95E1F7FE01E353FE4F84E1DF010B
:101880001D928A95E9F7BE0167597E4FC8010E94F3
:101890000D0C8CE5EDE0F2E0DE01AF50BF4F0190A2
:1018A0000D928A95E1F7FE01E35BFE4F8CE1DF01CB
:1018B0001D928A95E9F7BE016F507F4FC8010E94C3
:1018C0000D0C8EE5E5E8F2E0DE01A758BF4F019070
:1018D0000D928A95E1F7FE01E952FF4F8AE1DF019F
:1018E0001D928A95E9F7BE0167587F4FC8010E9493
:1018F0000D0CBF92CF92DF92EF921F92FF9282ED7A
:1019000093E09F938F93CE0101967C019F938F93D9
:101910000E94AD15B701C8010E940D0C0FB6F894D6
:10192000DEBF0FBECDBFC052DE4F0FB6F894DEBF94
:101930000FBECDBFDF91CF911F910F91FF90EF9020
:10194000DF90CF90BF900895EF92FF920F931F9377
:10195000CF93DF93CDB7DEB7C857D1090FB6F89450
:10196000DEBF0FBECDBF8C013F932F933F932F93CC
:101970008EE622EC31E0489F2019310911243F9373
:101980002F93689FB001112464547F4F7F936F930E
:101990008DE394E09F938F93CE0101967C019F93FA
:1019A0008F930E94AD15B701C8010E940D0C0FB6B0
:1019B000F894DEBF0FBECDBFC858DF4F0FB6F89406
:1019C000DEBF0FBECDBFDF91CF911F910F91FF9072
:1019D000EF900895EF92FF920F931F93CF93DF93B1
:1019E000CDB7DEB7C857D1090FB6F894DEBF0FBE2A
:1019F000CDBF8C018EE625EC31E0789F20193109AE
:101A000011243F932F93689FB001112461547F4F9D
:101A10007F936F9381E994E09F938F93CE0101961A
:101A20007C019F938F930E94AD15B701C8010E945E
:101A30000D0C0FB6F894DEBF0FBECDBFC858DF4FF8
:101A40000FB6F894DEBF0FBECDBFDF91CF911F91CF
:101A50000F91FF90EF9008952F923F924F925F92D7
:101A60006F927F928F929F92AF92BF92CF92DF92AE
:101A7000EF92FF920F931F93CF93DF93CDB7DEB713
:101A8000C85DD1090FB6F894DEBF0FBECDBFCD52F1
:101A9000DF4F8883C35DD040CC52DF4F9883C45D55
:101AA000D0408B01C153DF4F4883CF5CD0402DB76E
:101AB0003EB7C952DF4F39832883C75DD0404330DA
:101AC00008F492C2842E912C34014DB75EB74819A8
:101AD00059090FB6F8945EBF0FBE4DBF8DB79EB7C4
:101AE00001966C01A4016FEF70E00E94A6157801C9
:101AF000D80191E0C353DF4F9883CD5CD040C753EA
:101B0000DF4F1882C95CD040C753DF4F2881C95CC2
:101B1000D040E22FF0E0EE0FFF1FE00FF11F129612
:101B20009C9112978081981750F4C353DF4F3881EE
:101B3000CD5CD040C753DF4F3883C95CD040C3531E
:101B4000DF4F4881CD5CD0404F5FCF52DF4F48839D
:101B5000C15DD0401296C153DF4F5881CF5CD04059
:101B6000541367C2C753DF4F3880C95CD040A32CE1
:101B7000B12CC5010196B4010E944E139501220FAC
:101B8000331FD801A20FB31FCB52DF4FB983A883F5
:101B9000C55DD0402801382E212CE32DF0E0EE0F5A
:101BA000FF1FE00FF11F40815181F20160817181BF
:101BB000CB52DF4FA881B981C55DD0408D919C91FA
:101BC0000E944F0B029709F4322C81E0820DB2E0A3
:101BD0004B0E511CC353DF4FE881CD5CD040E21166
:101BE00033C2F601EA0DFB1D3082C753DF4FF88187
:101BF000C95CD040F311BBCFC153DF4F2881CF5C0C
:101C0000D040822F90E0880F991F4DB75EB7481BD8
:101C1000590B0FB6F8945EBF0FBE4DBF8DB79EB780
:101C200001962C01C353DF4F99838883CD5CD0404C
:101C3000FC0110821182329691E0691A7108C9F78D
:101C40003C2DF60120E080E0212C91919F3FA1F0F6
:101C5000A22DB0E0AA0FBB1FBD01640D751DD701F9
:101C60004D915C91DB014D935C93D7019C91890F61
:101C700011969C91290F2394B2E0EB0EF11C9E2F3C
:101C8000931BCF52DF4F4881C15DD0409417E8F2DB
:101C9000622D0E942E13C82E822F0E942E13B82E62
:101CA000D12C022D10E0380151E0651A7108C301F2
:101CB000880F991FD201A80FB91FC153DF4FB983F5
:101CC000A883CF5CD040C801880F991F840D951D53
:101CD000FC013297CF52DF4FF983E883C15DD040DA
:101CE0001196CB52DF4FB983A883C55DD0402D102C
:101CF0000AC2712CA12CB12CC12CD12C7801B1E0DD
:101D0000EB1AF108072D10E00E151F050CF4FDC1AC
:101D1000EE0CFF1CE40CF51CD7018C91F2019081B4
:101D2000890F9927991F9C01990F440B550BC75395
:101D3000DF4F288339834A835B83C95CD040CA0163
:101D4000B9010E94841420E030E040E05FE3C75313
:101D5000DF4F6883C95CD040C653DF4F7883CA5CCD
:101D6000D040C553DF4F8883CB5CD040C453DF4F96
:101D70009883CC5CD040C753DF4F688179818A81DA
:101D80009B81C95CD0400E94391520E030E040E3DF
:101D900051E4C753DF4F6883C95CD040C653DF4F5F
:101DA0007883CA5CD040C553DF4F8883CB5CD0407A
:101DB000C453DF4F9883CC5CD040C753DF4F68815A
:101DC00079818A819B81C95CD0400E9439154B0181
:101DD0008C01D70111968C91F2019181891B990B8D
:101DE0009C01990F440B550BC753DF4F2883398350
:101DF0004A835B83C95CD040CA01B9010E94841444
:101E000020E030E040E351E4C753DF4F6883C95C12
:101E1000D040C653DF4F7883CA5CD040C553DF4FF4
:101E20008883CB5CD040C453DF4F9883CC5CD040D8
:101E3000C753DF4F688179818A819B81C95CD0401B
:101E40000E9439159B01AC01C753DF4F8882C95CE2
:101E5000D040C653DF4F9882CA5CD040C553DF4F95
:101E60000883CB5CD040C453DF4F1883CC5CD04098
:101E7000C753DF4F688179818A819B81C95CD040DB
:101E80000E9439159501A601C753DF4F6883C95CCD
:101E9000D040C653DF4F7883CA5CD040C553DF4F74
:101EA0008883CB5CD040C453DF4F9883CC5CD04058
:101EB000C753DF4F688179818A819B81C95CD0409B
:101EC0000E946913C753DF4F6883C95CD040C65373
:101ED000DF4F7883CA5CD040C553DF4F8883CB5C2B
:101EE000D040C453DF4F9883CC5CD040C753DF4F02
:101EF000688179818A819B81C95CD0400E9453149A
:101F00007F936F9380EE94E09F938F938E010F5F8A
:101F10001F4F1F930F930E94AD15B801CD52DF4F95
:101F20008881C35DD040CC52DF4F9881C45DD040E2
:101F30000E940D0C83E1EDEFF2E0DE01AB54BF4FE8
:101F400001900D928A95E1F7C853DF4F1882C85C63
:101F5000D040BE016B547F4FCD52DF4F8881C35DAF
:101F6000D040CC52DF4F9881C45DD0400E940D0C10
:101F70000F900F900F900F900F900F90B12C08586A
:101F80001F4F9EE6A92E25ECC22EDD24D39435E406
:101F9000E32E35E0F32E2B10AFC186E3E1E1F3E051
:101FA000D80101900D928A95E1F7F801F69686E046
:101FB000DF011D928A95E9F7B801CD52DF4F888184
:101FC000C35DD040CC52DF4F9881C45DD0400E94A9
:101FD0000D0CC952DF4FE881F981C75DD0400FB6C3
:101FE000F894FEBF0FBEEDBFC952DF4F2881398183
:101FF000C75DD0400FB6F8943EBF0FBE2DBFC8528C
:10200000DF4F0FB6F894DEBF0FBECDBFDF91CF918B
:102010001F910F91FF90EF90DF90CF90BF90AF9006
:102020009F908F907F906F905F904F903F902F90F8
:102030000895CF52DF4FE881C15DD040C353DF4FD9
:10204000E883CD5CD04060CD282EA7CDC701019696
:10205000880F991F9201280F391FC753DF4F39830B
:102060002883C95CD040D9018D909C90EE0CFF1C58
:10207000E40CF51CF70160817181A4018C2D9B2D6E
:102080000E944F0B029789F4D7019C9111968C9175
:10209000119711969C928E9212969C93C753DF4F84
:1020A000E881F981C95CD0408183A394EA2CF12CAA
:1020B000E614F7045CF2D201ED90FC90C153DF4FBF
:1020C000E881F981CF5CD04060817181A7018C2DBE
:1020D0009B2D0E944F0B0297A1F4CF52DF4FA88196
:1020E000B981C15DD0409C91CB52DF4FE881F9812D
:1020F000C55DD0408081ED92FC92D2019C931196F7
:102100008C93D394F4CDA12CD1CF4801880C991C89
:10211000840C951CF40180819281890F9927991F65
:102120009C01990F440B550BC753DF4F288339830C
:102130004A835B83C95CD040CA01B9010E94841400
:1021400020E030E040E351E4C753DF4F6883C95CCF
:10215000D040C653DF4F7883CA5CD040C553DF4FB1
:102160008883CB5CD040C453DF4F9883CC5CD04095
:10217000C753DF4F688179818A819B81C95CD040D8
:102180000E94391520E030E040E05FE3C753DF4FA5
:102190006883C95CD040C653DF4F7883CA5CD040A7
:1021A000C553DF4F8883CB5CD040C453DF4F988347
:1021B000CC5CD040C753DF4F688179818A819B8195
:1021C000C95CD0400E943915362EC153DF4F788349
:1021D000CF5CD040CF52DF4F8883C15DD040692EA5
:1021E000D40111968C91F8013196EE0FFF1FE40D8A
:1021F000F51D9181891B990B9C01990F440B550B7F
:10220000C753DF4F288339834A835B83C95CD0403F
:10221000CA01B9010E94841420E030E040E351E497
:10222000C753DF4F6883C95CD040C653DF4F788304
:10223000CA5CD040C553DF4F8883CB5CD040C453C9
:10224000DF4F9883CC5CD040C753DF4F68817981E2
:102250008A819B81C95CD0400E9439159B01AC01E9
:10226000C753DF4F3882C95CD040C153DF4F8881EC
:10227000CF5CD040C653DF4F8883CA5CD040CF527A
:10228000DF4F9881C15DD040C553DF4F9883CB5C51
:10229000D040C453DF4F6882CC5CD040C753DF4F7F
:1022A000688179818A819B81C95CD0400E943915FF
:1022B0009B01AC01C753DF4FA882C95CD040C65315
:1022C000DF4FB882CA5CD040C553DF4FC882CB5CB9
:1022D000D040C453DF4FD882CC5CD040C753DF4FCF
:1022E000688179818A819B81C95CD0400E94691391
:1022F0005B016C01739406CDC353DF4FA881B98194
:10230000CD5CD04011968C911197F6018A9DE01911
:10231000F1091124CF019F93EF938C918A9DC00105
:10232000112481549F4F9F938F93FF92EF921F939D
:102330000F930E94AD15B801CD52DF4F8881C35D68
:10234000D040CC52DF4F9881C45DD0400E940D0C2C
:10235000B394C353DF4F28813981CD5CD0402E5FC9
:102360003F4FC353DF4F39832883CD5CD0404DB7F7
:102370005EB7485F5F4F0FB6F8945EBF0FBE4DBFAC
:102380000ACECF93DF93CDB7DEB72A970FB6F89476
:10239000DEBF0FBECDBF9C0197E0EDE4F3E0DE01B0
:1023A000119601900D929A95E1F7FE01389683E01F
:1023B000DF011D928A95E9F7BE016F5F7F4FC9016A
:1023C0000E940D0C2A960FB6F894DEBF0FBECDBF4B
:1023D000DF91CF9108950F931F93CF93DF93CDB7E4
:1023E000DEB72A970FB6F894DEBF0FBECDBFFC0153
:1023F00080819181A281B38180959095A095B095BF
:1024000080839183A283B383BF93AF939F938F9372
:102410008DE495E09F938F938E010F5F1F4F1F9365
:102420000F930E94AD15C8010E9442120FB6F89496
:10243000DEBF0FBECDBF2A960FB6F894DEBF0FBE2B
:10244000CDBFDF91CF911F910F9108951092C500DC
:102450008FEC8093C400E0ECF0E08081806C80839E
:10246000E1ECF0E0808188618083E2ECF0E0808143
:102470008E60808308959091C00095FFFCCF80937B
:10248000C60008950F931F93CF93DF93EC0109903B
:102490000020E9F72197C81BD82F8C01802F8D1BB6
:1024A0008C1728F0DF91CF911F910F910895F801BB
:1024B00081918F010E943B12F1CF8091C00087FF74
:1024C000FCCF8091C600089510927C0086E880932E
:1024D0007A00089510927A00089580917C00807EA1
:1024E00080937C0080917C006770682B60937C00F7
:1024F00080917A00806480937A0080917A0084FFD2
:10250000FCCF80917A00806180937A0020917800DE
:102510008091790090E0982F8827820F911D08956F
:1025200000D00F92CDB7DEB70E9470001B8265E22B
:1025300070E08E010F5F1F4FC8010E94A200F12CB6
:10254000E12CBB24B39480915305811118C0E11094
:1025500016C080915205882339F0BE016D5F7F4F10
:1025600081E090E00E94AE06B110EDCFC8010E945C
:10257000310190E080E00F900F900F90089510923D
:102580005305109252058091530581110CC0809122
:102590005205811108C0BE016D5F7F4F90E080E061
:1025A0000E94AE06F0CF80915305882371F161E05F
:1025B00070E0C8010E94A6002FEF83ED90E3215048
:1025C00080409040E1F700C0000063E070E0C80187
:1025D0000E94A600D12CC12CF11004C084E595E026
:1025E0000E943201B60184E595E00E947E0180914F
:1025F00053058F5F80935305F0905705FF2001F13D
:1026000010925305E12CB12C9ECF80915205882366
:1026100019F370E060E0C8010E94A6002FEF83ED7F
:1026200090E3215080409040E1F700C0000063E05B
:1026300070E0C8010E94A600CC24C394D12CCCCF5A
:10264000FF24F394EE24E3947ECFE4E5F5E01182D9
:10265000108212821382148215820895991B79E0E8
:1026600004C0991F961708F0961B881F7A95C9F722
:1026700080950895AA1BBB1B51E107C0AA1FBB1F71
:10268000A617B70710F0A61BB70B881F991F5A95FE
:10269000A9F780959095BC01CD01089597FB072E71
:1026A00016F4009407D077FD09D00E943A1307FC76
:1026B00005D03EF4909581959F4F08957095619552
:1026C0007F4F0895EE0FFF1F0590F491E02D0994C0
:1026D0005058BB27AA270E9480130C94FA140E941A
:1026E000EC1438F00E94F31420F039F49F3F19F4F1
:1026F00026F40C94E9140EF4E095E7FB0C94E31433
:10270000E92F0E940B1558F3BA1762077307840765
:10271000950720F079F4A6F50C942D150EF4E095AC
:102720000B2EBA2FA02D0B01B90190010C01CA018B
:10273000A0011124FF27591B99F0593F50F4503E36
:1027400068F11A16F040A22F232F342F4427585F28
:10275000F3CF469537952795A795F0405395C9F740
:102760007EF41F16BA0B620B730B840BBAF09150F8
:10277000A1F0FF0FBB1F661F771F881FC2F70EC097
:10278000BA0F621F731F841F48F48795779567956A
:10279000B795F7959E3F08F0B0CF9395880F08F056
:1027A0009927EE0F9795879508950E94BF1408F416
:1027B00081E008950E94EE130C94FA140E94F31421
:1027C00058F00E94EC1440F029F45F3F29F00C947B
:1027D000E31451110C942E150C94E9140E940B155E
:1027E00068F39923B1F3552391F3951B550BBB2740
:1027F000AA2762177307840738F09F5F5F4F220F85
:10280000331F441FAA1FA9F335D00E2E3AF0E0E87B
:1028100032D091505040E695001CCAF72BD0FE2FC5
:1028200029D0660F771F881FBB1F26173707480759
:10283000AB07B0E809F0BB0B802DBF01FF27935811
:102840005F4F3AF09E3F510578F00C94E3140C94DE
:102850002E155F3FE4F3983ED4F386957795679500
:10286000B795F7959F5FC9F7880F911D9695879546
:1028700097F90895E1E0660F771F881FBB1F621765
:1028800073078407BA0720F0621B730B840BBA0B23
:10289000EE1F88F7E09508950E9453146894B111D3
:1028A0000C942E1508950E94131588F09F5798F0E8
:1028B000B92F9927B751B0F0E1F0660F771F881F45
:1028C000991F1AF0BA95C9F714C0B13091F00E945F
:1028D0002D15B1E008950C942D15672F782F8827BA
:1028E000B85F39F0B93FCCF3869577956795B39586
:1028F000D9F73EF490958095709561957F4F8F4FF5
:102900009F4F0895E89409C097FB3EF490958095F9
:10291000709561957F4F8F4F9F4F9923A9F0F92FA5
:1029200096E9BB279395F695879577956795B79523
:10293000F111F8CFFAF4BB0F11F460FF1BC06F5F09
:102940007F4F8F4F9F4F16C0882311F096E911C01B
:10295000772321F09EE8872F762F05C0662371F03C
:1029600096E8862F70E060E02AF09A95660F771F50
:10297000881FDAF7880F9695879597F90895990F2C
:102980000008550FAA0BE0E8FEEF16161706E80739
:10299000F907C0F012161306E407F50798F0621B5A
:1029A000730B840B950B39F40A2661F0232B242B2F
:1029B000252B21F408950A2609F4A140A6958FEF4E
:1029C000811D811D089597F99F6780E870E060E0A0
:1029D00008959FEF80EC089500240A9416161706B8
:1029E00018060906089500240A9412161306140600
:1029F00005060895092E0394000C11F4882352F063
:102A0000BB0F40F4BF2B11F460FF04C06F5F7F4F1A
:102A10008F4F9F4F089557FD9058440F551F59F001
:102A20005F3F71F04795880F97FB991F61F09F3FBB
:102A300079F087950895121613061406551FF2CFE4
:102A40004695F1DF08C0161617061806991FF1CF34
:102A500086957105610508940895E894BB2766275B
:102A60007727CB0197F908950E94BF1408F48FEFE0
:102A700008950E944C150C94FA140E94EC1438F03E
:102A80000E94F31420F0952311F00C94E3140C949D
:102A9000E91411240C942E150E940B1570F3959FC8
:102AA000C1F3950F50E0551F629FF001729FBB2745
:102AB000F00DB11D639FAA27F00DB11DAA1F649FE1
:102AC0006627B00DA11D661F829F2227B00DA11D94
:102AD000621F739FB00DA11D621F839FA00D611D1A
:102AE000221F749F3327A00D611D231F849F600D3B
:102AF000211D822F762F6A2F11249F5750409AF064
:102B0000F1F088234AF0EE0FFF1FBB1F661F771FEF
:102B1000881F91505040A9F79E3F510580F00C94BA
:102B2000E3140C942E155F3FE4F3983ED4F386959E
:102B300077956795B795F795E7959F5FC1F7FE2B5A
:102B4000880F911D9695879597F90895DC0101C02E
:102B50006D9341505040E0F70895AEE0B0E0E3EBF4
:102B6000F5E10C9455180D891E8986E08C831A8333
:102B700009838FEF9FE79E838D83AE01475E5F4F92
:102B80006F89788DCE0101960E94D0152F813885EE
:102B9000020F131FF80110822E96E4E00C947118B6
:102BA000AFE0B0E0E6EDF5E10C9447187C013B01A5
:102BB0008A01DC0117961C921E92169713968C912F
:102BC00081FFBEC19AE0292EFE0131964F01D70147
:102BD00013969C91F30193FD859193FF81913F01A1
:102BE000882309F444C1853239F493FD859193FF1C
:102BF00081913F01853229F4B70190E00E94B91715
:102C0000E6CFB12C412C512CBFE1B51538F08B32F9
:102C100009F188F4803201F1833221F157FC3AC086
:102C200020ED280F2A3040F556FE1FC0B29C200D23
:102C30001124B22E06C08D3291F0803379F768945A
:102C400050F8F30193FD859193FF81913F0181112C
:102C5000DBCF20C0689451F8689452F8F2CF6894A2
:102C600053F8EFCF689454F8ECCF429C200D112418
:102C7000422E689455F8E5CF8E3229F456FCF7C001
:102C8000689456F8DECF8C3619F4689457F8D9CF8B
:102C90008836B9F2982F9F7D95549330C0F08336D3
:102CA00081F18337A1F1833509F05BC0D801CD9064
:102CB000DD908D016B2D70E056FC02C06FEF7FEF51
:102CC000C6010E94A3175C01689457F80AC00C5F04
:102CD0001F4FEFE3E983AA24A394B12C6401E89485
:102CE00057F853FE29C0342CA114B10451F53320F8
:102CF00009F46DCFB70180E290E00E94B9173A94D1
:102D0000F6CFD8018C9189830E5F1F4FE4CFF80175
:102D1000C190D1908F016B2D70E056FC02C06FEF17
:102D20007FEFC6010E94AE175C01D9CFB70180E2E8
:102D300090E00E94B9174A944A141B0409F0B0F7B6
:102D4000D2CFF60157FC859157FE81916F01B701F3
:102D500090E00E94B91731103A94B1E0AB1AB10873
:102D6000C3CF843619F0893609F071C0F80157FED7
:102D700067C061917191819191918F01E52DEF76FD
:102D8000DE2E97FF09C090958095709561957F4FD5
:102D90008F4F9F4F6894D7F82AE030E0A4010E943B
:102DA000E917C82EC818AC2C5D2CD6FE0CC0E894D0
:102DB00050F8CB1440F4D4FE05C0D2FC03C05D2D06
:102DC0005E7E552EAB2C54FE93C0FE01EC0DF11D22
:102DD0008081803309F085C0652D697E562E752D62
:102DE0007870372E53FC93C050FE8DC0BC2CA414B9
:102DF00010F4B40CBA1854FE90C0B70180E390E010
:102E00000E94B91752FE07C088E751FC88E590E0A0
:102E1000B7010E94B917CB1408F48BC0CA94D12C07
:102E20008FEFC81AD80AC80CD91CD6018E916D0133
:102E3000B70190E00E94B9178C149D04B1F757CFE9
:102E400061917191072E000C880B990B96CFD52CB0
:102E5000E894D4F82AE0853729F1F52DF97FDF2EA3
:102E60008037A1F058F48835A1F08F36D1F0F70102
:102E7000868197812F96E2E10C9463188837B9F721
:102E8000D4FE02C06894D2F820E10CC06894D4F853
:102E9000F7CF54FE03C02F2F2660D22E20E132E060
:102EA00002C028E030E0F801D7FE15C041915191F1
:102EB000619171914C875D876E877F878F01A40137
:102EC0006C857D858E859F850E94E917C82EC81860
:102ED000E894D7F868CF81919191AC0170E060E0FF
:102EE000E9CF52FC02C0A3947ACFA394A39477CFE6
:102EF000852D867809F473CFF6CFB70180E290E094
:102F00000E94B917A394A414C0F3312C74CF342CAD
:102F10003A18A41408F46FCFF8CF852D867809F4F9
:102F20007ACF8BE251FE80E257FC8DE2B70190E050
:102F300070CFB70180E390E00E94B917BA946BCFCD
:102F40008FEF9FEF97CFFC0105906150704001100B
:102F5000D8F7809590958E0F9F1F0895FC016150C2
:102F6000704001900110D8F7809590958E0F9F1FAB
:102F700008950F931F93CF93DF93182F092FEB0121
:102F80008B8181FD09C01FEF0FEF812F902FDF9103
:102F9000CF911F910F91089582FF14C02E813F8120
:102FA0008C819D81281739073CF4E881F981CF0194
:102FB00001969983888310838E819F8101969F83D8
:102FC0008E83E3CFE885F985812F0995892BA1F3BD
:102FD000DACFFA01AA27283051F1203181F1E894A3
:102FE0006F936E7F6E5F7F4F8F4F9F4FAF4FB1E0FC
:102FF0003ED0B4E03CD0670F781F891F9A1FA11DF7
:10300000680F791F8A1F911DA11D6A0F711D811DF7
:10301000911DA11D20D009F468943F912AE0269FBC
:1030200011243019305D3193DEF6CF010895462F1B
:103030004770405D4193B3E00FD0C9F7F6CF462FFC
:103040004F70405D4A3318F0495D31FD4052419365
:1030500002D0A9F7EACFB4E0A69597958795779522
:103060006795BA95C9F700976105710508959B01A9
:10307000AC010A2E06945795479537952795BA9532
:10308000C9F7620F731F841F951FA01D08952F920B
:103090003F924F925F926F927F928F929F92AF92E8
:1030A000BF92CF92DF92EF92FF920F931F93CF9335
:1030B000DF93CDB7DEB7CA1BDB0B0FB6F894DEBFCC
:1030C0000FBECDBF09942A88398848885F846E84F2
:1030D0007D848C849B84AA84B984C884DF80EE803C
:1030E000FD800C811B81AA81B981CE0FD11D0FB645
:1030F000F894DEBF0FBECDBFED010895F894FFCF69
:10310000A00000DC427B14E942A4F0F6425CCF024E
:10311000430A970A430AD712435C8F1B435CCF24B0
:1031200043299C2E4371FD384371FD434366A64FEE
:103130004300005C437B146943A4F076435CCF8278
:10314000430A978A437BD492435C8F9B435CCFA412
:1031500043299CAE43B8FEB843B8FEC34366A6CF2E
:10316000430000DC437B14E943A4F0F64300D002A3
:10317000440A970A447BD4124400901B4400D02494
:1031800044CD9C2E44B8FE38445CFF434466A64FB1
:103190004400005C443C212D2D203C737667207751
:1031A000696474683D223130302522206865696782
:1031B00068743D22313030252220786D6C6E733D6D
:1031C00022687474703A2F2F7777772E77332E6FAB
:1031D00072672F323030302F737667222076696520
:1031E00077426F783D223020302031313532203522
:1031F0003736223E202D2D3E00000000000000004A
:10320000000000000000000000000000003C737699
:10321000672077696474683D223130302522206848
:1032200065696768743D22313030252220786D6CE5
:103230006E733D22687474703A2F2F7777772E77EC
:10324000332E6F72672F323030302F737667222023
:1032500076696577426F783D2230203020313135F4
:103260003220353736223E0A000000000000000000
:10327000000000000000000000000000000000004E
:103280000000000000093C7265637420783D22391B
:10329000362220793D223438222077696474683DD3
:1032A0002239363022206865696768743D223438D7
:1032B0003022207374726F6B653D22626C61636BA8
:1032C00022207374726F6B652D77696474683D2278
:1032D00031222066696C6C3D227768697465222F03
:1032E0003E0A000000000000000000000000000096
:1032F00000000000000000000000000000093C7019
:103300006F6C79676F6E20706F696E74733D220009
:103310000022207374796C653D2266696C6C3A6793
:103320007265656E3B207374726F6B653A626C6197
:10333000636B3B207374726F6B652D77696474687F
:103340003A32222F3E0A000000000000003C2F739A
:1033500076673E00000000785F3A2025643B2079C4
:103360005F203A202564203B20616E676C65203A1F
:103370002025643B206475726565203A2025642011
:103380000A004156414E54203A207461696C6C65C4
:103390003A2025643B20494E54454E53495445201C
:1033A0003A202564203B200A00414E4349454E20E7
:1033B0003A20783A2025642C20793A2025643B2055
:1033C0000A00466C61736800626C61636B00726531
:1033D0006400093C7465787420783D2239362220D7
:1033E000793D2233362220666F6E742D66616D69D9
:1033F0006C793D22617269616C2220666F6E742D5A
:1034000073697A653D223230222066696C6C3D22F8
:10341000626C7565223E73656374696F6E2025303A
:1034200075202D2D20657175697065202575202DFD
:103430002D2025733C2F746578743E0A00093C7278
:1034400065637420783D2225752220793D222575FB
:10345000222077696474683D223622206865696796
:1034600068743D223622207374726F6B653D22258D
:103470007322207374726F6B652D77696474683D75
:103480002231222066696C6C3D222573222F3E0A70
:1034900000093C636972636C652063783D22257581
:1034A000222063793D2225752220723D223130226F
:1034B000207374726F6B653D22626C61636B2220B6
:1034C0007374726F6B652D77696474683D22322264
:1034D0002066696C6C3D2267726179222F3E0A007A
:1034E000093C7465787420783D2239362220793D74
:1034F000223535362220666F6E742D66616D696CDB
:10350000793D22617269616C2220666F6E742D7341
:10351000697A653D223230222066696C6C3D2262F8
:103520006C7565223E41495245203A20256920703C
:103530006F75636573206361727265733C2F746588
:1035400078743E0A0025752C2025752000256C789E
:02355000000079
:00000001FF
