:100000000C943F000C947E000C9490000C946700BC
:100010000C9467000C9467000C9467000C946700C4
:100020000C9467000C9467000C9467000C946700B4
:100030000C9467000C9467000C9467000C946700A4
:100040000C9467000C9467000C9467000C94670094
:100050000C9467000C9467000C9467000C94670084
:100060000C9467000C9467000C9467000C94670074
:100070000C9467000C9467000C9467008D12112497
:100080001FBECFEFD8E0DEBFCDBF14E0A0E0B1E0EF
:10009000E0EDFFE202C005900D92AE36B107D9F750
:1000A00024E0AEE6B4E001C01D92A837B207E1F744
:1000B00010E0CFE3D0E004C02197FE010E94CA12F5
:1000C000CE33D107C9F70E94F9110C94E6170C94AE
:1000D000000084B1836084B98AB1836F8AB90895BE
:1000E000F8940E9469008DB383608DBBE9E6F0E06F
:1000F00080818360808378940C948F118F938FB765
:100100008F939F938FE59AEE0197F1F700C000005F
:1001100081E080936F049F918F918FBF8F9118958D
:100120008F938FB78F939F938FE59AEE0197F1F797
:1001300000C0000081E080936E049F918F918FBF7B
:100140008F911895FC01718360830895FC01CB01A8
:1001500062307105B1F034F4892B41F061307105E2
:1001600059F008956330710511F108950190F081FF
:10017000E02D82E0808308950190F081E02D81E000
:10018000F9CFA081B18182E08C938FE097E2019753
:10019000F1F700C000000190F081E02D81E0808344
:1001A0008FE097E20197F1F700C0000008950190F9
:1001B000F081E02D10820895FC01CB0162307105C1
:1001C00069F03CF4892BD9F16130710509F440C024
:1001D00008956330710509F43FC00895A081B1818D
:1001E00092E09C93AFE0B7E21197F1F700C00000F6
:1001F000A081B18181E08C93AFE0B7E21197F1F774
:1002000000C00000A081B1819C93AFE0B7E21197DC
:10021000F1F700C00000A081B1818C938FE097E2DC
:100220000197F1F700C000000190F081E02D1082ED
:10023000AFE5BAEE1197F1F700C000000895A08174
:10024000B18182E08C938FE39CE90197F1F7EACFCB
:10025000A081B18181E0F6CF0190F081E02D108284
:10026000089508950F931F93CF93DF930F92CDB707
:10027000DEB78C01CE0101960E941A04F80142817A
:1002800060817181CB01019691838083CE010196BB
:100290000E94F1048FE097E20197F1F700C000009F
:1002A000F80160817181CB0101969183808340E0E8
:1002B000CE0101960E94F1048FE097E20197F1F7D9
:1002C00000C00000F80160817181CB01019691832B
:1002D000808340E0CE0101960E94F1048FE097E216
:1002E0000197F1F700C00000CE0101960E941004B2
:1002F0000F90DF91CF911F910F9108952F923F9210
:100300004F925F926F927F928F929F92AF92BF9225
:10031000CF92DF92EF92FF920F931F93CF93DF93D1
:10032000CDB7DEB7C05BD1090FB6F894DEBF0FBE04
:10033000CDBF1C01C655DF4F6883CA5AD040C55592
:10034000DF4F7883CB5AD040C655DF4F88819981E3
:10035000CA5AD040892B09F491C0E1E0F0E0C155C0
:10036000DF4FF983E883CF5AD040C355DF4F19825E
:100370001882CD5AD0406E0197EAC90ED11CC60131
:100380000E94CD113E01E1EA6E0E711C65E270E043
:10039000C3010E94A2004E01F5E98F0E911C26E0D8
:1003A00047E06BE270E0C4010E940C07CE010196A9
:1003B0005C010E946C0A0E948F11CE018A559F4FEA
:1003C0000E941A0410E000E0C755DF4F1882C95A96
:1003D000D040E12CC855DF4F1882C85AD0402601C2
:1003E000D62CC72CF82C88248394310194E0690E14
:1003F000711C60E0C2010E94D6110230110509F49F
:1004000038C10CF04AC00115110509F467C001306C
:10041000110579F760E0C2010E94D6119695879583
:1004200096958795182FC855DF4FF881C85AD04048
:10043000F11105C0C455DF4F8883CC5AD0408F508E
:10044000873308F0E8C040E050E068EC72E48F2D9C
:10045000992D0E94260721E0C755DF4F2883C95AEE
:10046000D04081E01F3008F480E0082F10E0E1E088
:10047000C855DF4FE883C85AD040BBCFC155DF4FC6
:1004800019821882CF5AD04081E090E0C355DF4FE7
:1004900099838883CD5AD0406ECF0330110509F07F
:1004A000A8CF9FEFE1E1FAE79150E040F040E1F79B
:1004B00000C00000F1018381811166C11AE062E091
:1004C00070E08D2D9C2D0E94DC001150C1F763E07F
:1004D00070E08D2D9C2D0E94A6007AC160E0C201C3
:1004E0000E94D611969587959695879531EF380F8E
:1004F000373308F493C18634B8F1C855DF4FE8812B
:10050000C85AD040E11105C0C455DF4F8883CC5A8A
:10051000D0408F2D992D0E94E80803E010E061E59E
:10052000C5010E94780AFFEF22E587E0F1502040E4
:100530008040E1F700C00000C5010E94CE0A9FEF95
:10054000E2E5F7E09150E040F040E1F700C0000044
:100550000150110921F702E010E021E0C855DF4FFA
:100560002883C85AD04045CFC755DF4F8881C95A24
:10057000D04020E030E048EC52E4882361F1C355DC
:10058000DF4F68817981CD5AD0408F2D992D0E94FF
:10059000A607EFECF7E03197F1F700C00000EA940E
:1005A000EA948F2D992D0E94E808FFE72EED8FE049
:1005B000F15020408040E1F700C00000E0E5EE157A
:1005C00020F4F101838203E010E0C755DF4F188269
:1005D000C95AD0400ECFC155DF4F68817981CF5ABB
:1005E000D0408F2D992D0E94A6079FEFE0E7F2E003
:1005F0009150E040F040E1F700C00000E3948F2DFF
:10060000992D0E94E8082FE78EED9FE02150804051
:100610009040E1F7D1CF163408F423CF8F2D992DD8
:100620000E94E80803E010E061E5C5010E94780A35
:100630008FEF92E5E7E081509040E040E1F700C0A5
:100640000000C5010E94CE0AFFEF22E587E0F150CD
:1006500020408040E1F700C000000150110921F75F
:1006600002E010E091E0C855DF4F9883C85AD040AF
:10067000C0CE6E2DC3010E941B099C01C455DF4FE3
:100680004881CC5AD040C655DF4F68817981CA5A1B
:10069000D040C3010E949D09AE014B555F4F60E001
:1006A00070E0CE018A559F4F0E942B048FE097E2A5
:1006B0000197F1F700C00000AE014B555F4F60E0BD
:1006C00070E0CE018A559F4F0E942B04F10160819A
:1006D000718161507109AE014D555F4FCE018A5550
:1006E0009F4F0E942B04F10160817181625071095A
:1006F000AE014C555F4FCE018A559F4F0E942B048F
:10070000F101448160817181CB01019691838083E5
:10071000CE018A559F4F0E94F1048FE097E2019726
:10072000F1F700C00000F101458160817181CB01CA
:10073000019691838083CE018A559F4F0E94F104D8
:100740008FE097E20197F1F700C00000F1014281CC
:100750004F5F428360E070E0CE018A559F4F0E9458
:10076000F1048FE097E20197F1F700C00000AE01BD
:100770004B555F4F60E070E0CE018A559F4F0E945D
:100780002B0403E010E035CE6DE2C5010E94780A2B
:10079000FFEF23ED80E3F15020408040E1F700C0FF
:1007A0000000C5010E94CE0A1AE070E060E08D2DC5
:1007B0009C2D0E94DC001150C1F763E070E08D2D8C
:1007C0009C2D0E94A600F1018381882309F476CE36
:1007D000CE018A559F4F0E9410048D2D9C2D0E94A2
:1007E0003101C2010E94D311C055DF4F0FB6F894FA
:1007F000DEBF0FBECDBFDF91CF911F910F91FF9054
:10080000EF90DF90CF90BF90AF909F908F907F90B0
:100810006F905F904F903F902F90089501E0B2CF7E
:10082000089580EA809300011092B90080E28093DD
:10083000B8000895FC0180E88083CF010C94110476
:10084000982F9370891305C0880F806A80930001E8
:1008500008958FEF0895FA0194EA24E89093BC007C
:100860008091BC0087FFFCCF809100018093BB008A
:100870002093BC008091BC0087FFFCCF8091B90021
:10088000883161F784EA8093BC008091BC0087FFC7
:10089000FCCF809100018093BB0084E88093BC0072
:1008A0008091BC0087FFFCCF7093BB0084E88093ED
:1008B000BC008091BC0087FFFCCF6093BB0084E844
:1008C0008093BC008091BC0087FFFCCF8091BC006E
:1008D00087FFFCCF84EA8093BC008091BC0087FF37
:1008E000FCCF809100018F5F8093BB0084E88093F0
:1008F000BC008091BC0087FFFCCF84E88093BC00E3
:100900008091BC0087FFFCCF8091BB00808384E98D
:100910008093BC0080E0089594EA34E89093BC0092
:100920008091BC0087FFFCCF809100018093BB00C9
:100930003093BC008091BC0087FFFCCF8091B90050
:10094000883161F784EA8093BC008091BC0087FF06
:10095000FCCF809100018093BB0084E88093BC00B1
:100960008091BC0087FFFCCF7093BB0084E880932C
:10097000BC008091BC0087FFFCCF6093BB0084E883
:100980008093BC008091BC0087FFFCCF84EA8093F9
:10099000BC008091BC0087FFFCCF809100018F5F7D
:1009A0008093BB0084E88093BC008091BC0087FFEB
:1009B000FCCF84EC211105C084E98093BC0080E069
:1009C0000895213009F484E88093BC009091BC0024
:1009D00097FFFCCFFA019091BB0091932150AF019A
:1009E000E9CF94EA24E89093BC008091BC0087FF93
:1009F000FCCF809100018093BB002093BC008091CC
:100A0000BC0087FFFCCF8091B900883161F784EA90
:100A10008093BC008091BC0087FFFCCF80910001D7
:100A20008093BB0084E88093BC008091BC0087FF6A
:100A3000FCCF7093BB0084E88093BC008091BC0025
:100A400087FFFCCF6093BB0084E88093BC0080915B
:100A5000BC0087FFFCCF4093BB0084E88093BC00C0
:100A60008091BC0087FFFCCF84E98093BC0080E0CC
:100A70000895FB01260F372F311DDC018C91815029
:100A8000990B862B9F2B2817390718F09C012F5F95
:100A90003F4F822F8E1B24EA34E82093BC009091B4
:100AA000BC0097FFFCCF909100019093BB00309366
:100AB000BC009091BC0097FFFCCF9091B900983199
:100AC00061F794EA9093BC009091BC0097FFFCCF33
:100AD000909100019093BB0094E89093BC0090919A
:100AE000BC0097FFFCCFF093BB0094E89093BC0050
:100AF0009091BC0097FFFCCFE093BB0094E89093EB
:100B0000BC009091BC0097FFFCCF982F24E8911176
:100B100004C094E99093BC000895FA013191309398
:100B2000BB002093BC003091BC0037FFFCCF91503C
:100B3000AF01EDCFDF92EF92FF920F931F93CF9310
:100B4000DF93D82ED92F7B018A01C22F2C2FA80129
:100B5000B7018D2D9D2F0E943905282F30E0E20E20
:100B6000F31EC81B020F131FC111F0CF80E0DF91ED
:100B7000CF911F910F91FF90EF90DF900895BF925A
:100B8000CF92DF92EF92FF920F931F93CF93DF9359
:100B900000D000D0CDB7DEB7B82EE92EF62E8E01EC
:100BA0000F5F1F4FC8010E94010B82E00E94A41139
:100BB0002FEF84E39CE0215080409040E1F700C09B
:100BC00000002FED32E04AEB56E061E0C8010E94E0
:100BD0009A0B4F2D6B2D7E2DC8010E94950CC12CB8
:100BE000D12C25EE32E04D2D6C2DC8010E940D0C4C
:100BF000D394E4E0DE12F5CFC394F8E0CF12F0CF47
:100C00002BEE32E040E060E0C8010E940D0CCB2CDE
:100C1000DE2CE12CEF101AC0C8010E942A1183E0DB
:100C20000E94A411C8010E94541184E00E94A411E2
:100C30000F900F900F900F90DF91CF911F910F9118
:100C4000FF90EF90DF90CF90BF900895F6016191F3
:100C500071916F01C8010E94530CE394DBCF6F9236
:100C60007F928F929F92AF92BF92CF92DF92EF923C
:100C7000FF920F931F93CF93DF93CDB7DEB72A97E1
:100C80000FB6F894DEBF0FBECDBF4C015B012DB790
:100C90003EB73A87298765E270E0AE014F5F5F4F4C
:100CA0006A01CA010E94A2007E0156E0E50EF11C15
:100CB000C7010E941A04860137018114910431F1A1
:100CC0008A94892809F444C0C3010E941004C80111
:100CD0000E94310189859A850FB6F8949EBF0FBE98
:100CE0008DBF2A960FB6F894DEBF0FBECDBFDF9141
:100CF000CF911F910F91FF90EF90DF90CF90BF9019
:100D0000AF909F908F907F906F900895F5018081B4
:100D100081110EC06AEFF62E62E070E0C8010E94F9
:100D2000A600FA94F110F8CF81E0F5018083CCCFD2
:100D300054E6F52E62E070E0C8010E94DC00FA94EF
:100D4000F110F8CF63E070E0C8010E94A600BCCFAC
:100D500061E070E0C6010E94A600FFEF23ED30E3E2
:100D6000F15020403040E1F700C00000AE014B5F81
:100D70005F4F70E060E0C7010E942B044DB75EB783
:100D800058874F838D8190E09C01220F331FEDB770
:100D9000FEB7E21BF30B0FB6F894FEBF0FBEEDBF1C
:100DA0002DB73EB72F5F3F4F7901F901019788F4C6
:100DB000D12C23E0C22E6D81D61678F0C7010E9497
:100DC000BF054F8158850FB6F8945EBF0FBE4DBF6B
:100DD0007BCF108211823296E9CF6C2D70E0AE018C
:100DE0004C5F5F4FC3010E942B0461E06C0D70E00B
:100DF000C394C394AE014D5F5F4FC3010E942B04A7
:100E0000ED2DF0E08B81EE0FFF1FEE0DFF1D9C819D
:100E100090838183D394CFCF0F931F93CF93DF938E
:100E2000EC01042F122F798768870E94EC090A874A
:100E30001B871C821D821E821F82188219821A82C1
:100E40001B82DF91CF911F910F910895CF93DF9374
:100E500000D000D0CDB7DEB7FC01CA01DB0184832E
:100E60009583A683B78380839183A283B383A08570
:100E7000B1854C91228581E090E0BC0102C0660FF3
:100E8000771F2A95E2F79B01209524232C93A085B8
:100E9000B1852C91338501C0880F3A95EAF780958A
:100EA00082238C9320813181428153818481958179
:100EB000A681B78189839A83AB83BC83BC01CD01B2
:100EC0000F900F900F900F90DF91CF910C94F90934
:100ED000CF93DF9300D000D0CDB7DEB7FC01CA01BD
:100EE000DB0184839583A683B78380839183A28368
:100EF000B383A085B1852C91328581E090E0AC016F
:100F000001C0440F3A95EAF7242B2C93A085B185B4
:100F10002C91338501C0880F3A95EAF7822B8C9388
:100F2000208131814281538184819581A681B7815D
:100F300089839A83AB83BC83BC01CD010F900F9052
:100F40000F900F90DF91CF910C94F909EF92FF92DF
:100F50000F931F93CF93DF9300D000D0CDB7DEB7B0
:100F6000FC01CB01F22EE32E742F652F009741F187
:100F70008130910509F43FC00F2D1E2D272F362FEC
:100F8000048315832683378300831183228333836D
:100F90002F2D3E2D472F562FF982EA827B836C83BB
:100FA00069817A818B819C810F900F900F900F90B7
:100FB000DF91CF911F910F91FF90EF900C94F90961
:100FC00000851185D8012C91328581E090E0AC013B
:100FD00001C0440F3A95EAF7242B2C9340855185A4
:100FE000DA012C91338501C0880F3A95EAF7809594
:100FF00082238C93C1CF00851185D8014C91228525
:10100000DC0102C0AA0FBB1F2A95E2F79D012095C3
:101010002423D8012C9340855185DA012C91338506
:1010200001C0880F3A95EAF7822BE3CF9F92AF92E7
:10103000BF92CF92DF92EF92FF920F931F93CF93C5
:10104000DF9300D000D000D0CDB7DEB78D839E8374
:10105000942EA52ED02E790120E030E0A9019982AE
:10106000AA826B837C8369817A818B819C810E94B7
:101070003D1300E087FD14C020E030E04FE753E46B
:1010800069817A818B819C810E949C140FEF1816D4
:101090003CF069817A818B819C810E94BB13062F71
:1010A00020E030E0A901D9821A83EB82FC826981B9
:1010B0007A818B819C810E943D1360E087FD13C083
:1010C00020E030E04FE753E469817A818B819C8195
:1010D0000E949C146FEF181634F069817A818B811D
:1010E0009C810E94BB13AD81BE811896ED91FC914D
:1010F000199740811A962C9181E090E0DC0102C0A2
:10110000AA0FBB1F2A95E2F79D0120952423208377
:10111000AD81BE811896ED91FC91199720811B96A7
:101120003C9101C0880F3A95EAF78095822380832D
:10113000862F90E0B0E0A0E089839A83AB83BC83E4
:10114000BC01CD010E94EA13D62EE72EF82E192FEE
:10115000862F9E2DAF2DB12FED81FE818483958347
:10116000A683B783802F90E0B0E0A0E089839A83C4
:10117000AB83BC83BC01CD010E94EA13F62FE72F9D
:10118000462F572FBC01AD81BE814D935D936D936A
:101190007C9313972F2F3E2FAC01D982EA82FB82DA
:1011A0001C8369817A818B819C8126960FB6F89485
:1011B000DEBF0FBECDBFDF91CF911F910F91FF908A
:1011C000EF90DF90CF90BF90AF909F900C94F90973
:1011D00020E030E0A901CA01B9010C94F909CF93CC
:1011E000DF9300D000D0CDB7DEB7462F572FBC011C
:1011F00049835A836B837C8320E030E0A9016981B5
:101200007A818B819C810E943D1387FF09C089816F
:101210009A81AB81BC81B05889839A83AB83BC83AC
:1012200069817A818B819C810F900F900F900F9034
:10123000DF91CF910895CF92DF92EF92FF920F93BB
:101240001F93CF93DF93CDB7DEB72A970FB6F894ED
:10125000DEBF0FBECDBF28E631E0629FC001639FB5
:10126000900D11246BE470E00E94A2128B01C12C3E
:10127000D12C8BE3E82EFF24F3941A861986C8013B
:10128000012E000CAA0BBB0B89839A83AB83BC8312
:10129000BC01CD010E94EC13462F572FBC014D839A
:1012A0005E836F83788717FF07C0DC01CA01B058DF
:1012B0008D839E83AF83B887C7010F2C000CAA0BC8
:1012C000BB0B89839A83AB83BC83BC01CD010E9495
:1012D000EC132D813E814F81588569837A838B83FE
:1012E0009C8369817A818B819C810E949C14181651
:1012F0004CF46D817E818F8198850E94B4137B01AF
:10130000C984DA84A985BA859D96BA87A9870D52C2
:101310001109A836B14009F0B2CFC6012A960FB61E
:10132000F894DEBF0FBECDBFDF91CF911F910F911B
:10133000FF90EF90DF90CF900895FC01CB01938355
:101340008283009721F0019769F180E034C0243B4B
:10135000310599F1D0F42A35310589F140F4211590
:101360003105A1F12D32310581F781E02DC081E0F9
:101370002738310551F79FEF31812081493240F103
:10138000930F820F9183808308952E3081E0380778
:10139000C1F02B3381E03807B1F08FEF213E3105EA
:1013A00051F3D3CF2D32310501F32A35310571F0D8
:1013B00081E0232B51F690E0DFCF80E0DCCF81E0AD
:1013C000FACF8FEFF8CF8FEF91E0D6CF80E0FCCF50
:1013D000990F930F880FD5CFE0E8F0E08081816A04
:1013E0008083E1E8F0E08081826080831092820057
:1013F0000895EF92FF920F931F93CF93DF9300D046
:1014000000D000D0CDB7DEB779014E835D8320E0F8
:1014100030E048EC52E469837A838B839C83698152
:101420007A818B819C810E94421320E030E04FE75B
:1014300053E469837A838B839C8369817A818B816E
:101440009C810E94A11469837A838B839C83698128
:101450007A818B819C810E94BB1370938900609379
:10146000880020E030E048EC52E4E982FA828E8184
:101470008B838D818C8369817A818B819C810E9491
:10148000421320E030E04FE753E469837A838B8393
:101490009C8369817A818B819C810E94A1146983DC
:1014A0007A838B839C8369817A818B819C810E9462
:1014B000BB13462F572F50938B0040938A002696DC
:1014C0000FB6F894DEBF0FBECDBFDF91CF911F9155
:1014D0000F91FF90EF900895DC0184E9E1E0F1E0E5
:1014E00001900D928A95E1F784B1886284B90895DC
:1014F000CF93DF9300D000D0CDB7DEB79C0183ED52
:10150000860F853208F043C06D52770B660F771F48
:10151000660F771F260F371FF90120813181428125
:10152000538160E074E284EF9AE40E94421320E069
:1015300030E040E05FE369837A838B839C83698139
:101540007A818B819C810E94A11420E030E040E8E8
:101550005BE369837A838B839C8369817A818B8146
:101560009C810E94A11469837A838B839C83698107
:101570007A818B819C810E94BB1367BD2D9884B5B5
:10158000826484BD84B58F7784BD84E085BD0F906F
:101590000F900F900F90DF91CF91089514BC089594
:1015A000CF93DF93E72FF0E070E0EF01C91BD10983
:1015B000242F30E0261B370BC29FD001C39FB00DF4
:1015C000D29FB00D1124681B7109852F90E08E1BEE
:1015D0009F0B689F9001699F300D789F300D1124FB
:1015E000CD01821B930BA217B30729F01816190619
:1015F0002CF082E090E0DF91CF91089581E090E0BF
:10160000FACF4FEF5FEFBA01FC0140835183628351
:1016100073830C948F11CF92DF92EF92FF92362F4B
:10162000272FBA01832F922F28E06B017C0131E034
:10163000C322DD24EE24FF24969587957795679540
:10164000CD28CE28CF2841F030E2632733E8732736
:1016500038EB83273DEE9327215039F7FF90EF9029
:10166000DF90CF900895AF92BF92CF92DF92EF922A
:10167000FF920F931F93CF93DF9300D000D000D041
:10168000CDB7DEB78C016D837E83ED81FE81019045
:101690000020E9F731978D819E81E81BF90B5C01F1
:1016A000AE0EB11CED81FE81EA15FB0589F426968C
:1016B0000FB6F894DEBF0FBECDBFDF91CF911F9163
:1016C0000F91FF90EF90DF90CF90BF90AF90089573
:1016D000D801CD90DD90ED90FC90ED81FE8181915F
:1016E000FE83ED83B701A601482755276627772794
:1016F000C8010E940B0B69837A838B839C83CD2C5A
:10170000DE2CEF2CFF24C626D726E826F926D801A2
:10171000CD92DD92ED92FC921397C4CFCF93DF93DD
:10172000D62FC72F0E94330B8D2F9C2FDF91CF9187
:101730000C94AB11BF92CF92DF92EF92FF920F9376
:101740001F93CF93DF93CDB7DEB7C856D1400FB606
:10175000F894DEBF0FBECDBF8C01F62EE42ED52E41
:10176000C22EB32E8CE5E5E9F1E0DE01AF50BF4FAC
:1017700001900D928A95E1F7FE01E35BFE4F8CE14B
:10178000DF011D928A95E9F7BE016F507F4FC801B6
:101790000E948E0B8EE5EDE0F2E0DE01A758BF4F10
:1017A00001900D928A95E1F7FE01E952FF4F8AE11F
:1017B000DF011D928A95E9F7BE0167587F4FC80186
:1017C0000E948E0BBF92CF92DF92EF921F92FF92F8
:1017D0008FEE92E09F938F93CE0101967C019F93B1
:1017E0008F930E941515B701C8010E948E0B0FB68A
:1017F000F894DEBF0FBECDBFC859DE4F0FB6F894C8
:10180000DEBF0FBECDBFDF91CF911F910F91FF9033
:10181000EF90DF90CF90BF900895EF92FF920F93DB
:101820001F93CF93DF93CDB7DEB7C857D1090FB65B
:10183000F894DEBF0FBECDBF8C013F932F933F9333
:101840002F938EE622EC31E0489F201931091124B4
:101850003F932F93689FB001112464547F4F7F936F
:101860006F938AE593E09F938F93CE0101967C015D
:101870009F938F930E941515B701C8010E948E0B8C
:101880000FB6F894DEBF0FBECDBFC858DF4F0FB6FE
:10189000F894DEBF0FBECDBFDF91CF911F910F91A6
:1018A000FF90EF900895EF92FF920F931F93CF93C5
:1018B000DF93CDB7DEB7C857D1090FB6F894DEBFB6
:1018C0000FBECDBF8C018EE625EC31E0789F20194C
:1018D000310911243F932F93689FB0011124615463
:1018E0007F4F7F936F938EEA93E09F938F93CE0108
:1018F00001967C019F938F930E941515B701C80133
:101900000E948E0B0FB6F894DEBF0FBECDBFC85835
:10191000DF4F0FB6F894DEBF0FBECDBFDF91CF9182
:101920001F910F91FF90EF9008952F923F924F9249
:101930005F926F927F928F929F92AF92BF92CF925F
:10194000DF92EF92FF920F931F93CF93DF93CDB768
:10195000DEB7C85DD1090FB6F894DEBF0FBECDBFAC
:10196000CD52DF4F8883C35DD040CC52DF4F988388
:10197000C45DD0408B01C153DF4F4883CF5CD04062
:101980002DB73EB7C952DF4F39832883C75DD0409A
:10199000433008F492C2842E912C34014DB75EB7C7
:1019A000481959090FB6F8945EBF0FBE4DBF8DB7E9
:1019B0009EB701966C01A4016FEF70E00E940E15B6
:1019C0007801D80191E0C353DF4F9883CD5CD040BC
:1019D000C753DF4F1882C95CD040C753DF4F2881FF
:1019E000C95CD040E22FF0E0EE0FFF1FE00FF11FC7
:1019F00012969C9112978081981750F4C353DF4F31
:101A00003881CD5CD040C753DF4F3883C95CD040AC
:101A1000C353DF4F4881CD5CD0404F5FCF52DF4F83
:101A20004883C15DD0401296C153DF4F5881CF5CCF
:101A3000D040541367C2C753DF4F3880C95CD040D1
:101A4000A32CB12CC5010196B4010E94B6129501D8
:101A5000220F331FD801A20FB31FCB52DF4FB98320
:101A6000A883C55DD0402801382E212CE32DF0E05D
:101A7000EE0FFF1FE00FF11F40815181F2016081E5
:101A80007181CB52DF4FA881B981C55DD0408D9166
:101A90009C910E94D00A029709F4322C81E0820DB9
:101AA000B2E04B0E511CC353DF4FE881CD5CD040F8
:101AB000E21133C2F601EA0DFB1D3082C753DF4F3E
:101AC000F881C95CD040F311BBCFC153DF4F2881EF
:101AD000CF5CD040822F90E0880F991F4DB75EB742
:101AE000481B590B0FB6F8945EBF0FBE4DBF8DB7A4
:101AF0009EB701962C01C353DF4F99838883CD5C39
:101B0000D040FC0110821182329691E0691A71086E
:101B1000C9F73C2DF60120E080E0212C91919F3FF8
:101B2000A1F0A22DB0E0AA0FBB1FBD01640D751D71
:101B3000D7014D915C91DB014D935C93D7019C9152
:101B4000890F11969C91290F2394B2E0EB0EF11CA2
:101B50009E2F931BCF52DF4F4881C15DD040941719
:101B6000E8F2622D0E949612C82E822F0E949612D1
:101B7000B82ED12C022D10E0380151E0651A710801
:101B8000C301880F991FD201A80FB91FC153DF4F9E
:101B9000B983A883CF5CD040C801880F991F840DFA
:101BA000951DFC013297CF52DF4FF983E883C15D69
:101BB000D0401196CB52DF4FB983A883C55DD0408A
:101BC0002D100AC2712CA12CB12CC12CD12C780162
:101BD000B1E0EB1AF108072D10E00E151F050CF40B
:101BE000FDC1EE0CFF1CE40CF51CD7018C91F20139
:101BF0009081890F9927991F9C01990F440B550BD0
:101C0000C753DF4F288339834A835B83C95CD04045
:101C1000CA01B9010E94EC1320E030E040E05FE32C
:101C2000C753DF4F6883C95CD040C653DF4F78830A
:101C3000CA5CD040C553DF4F8883CB5CD040C453CF
:101C4000DF4F9883CC5CD040C753DF4F68817981E8
:101C50008A819B81C95CD0400E94A11420E030E0C1
:101C600040E351E4C753DF4F6883C95CD040C6539B
:101C7000DF4F7883CA5CD040C553DF4F8883CB5C8D
:101C8000D040C453DF4F9883CC5CD040C753DF4F64
:101C9000688179818A819B81C95CD0400E94A114AE
:101CA0004B018C01D70111968C91F2019181891B16
:101CB000990B9C01990F440B550BC753DF4F288399
:101CC00039834A835B83C95CD040CA01B9010E9451
:101CD000EC1320E030E040E351E4C753DF4F68836A
:101CE000C95CD040C653DF4F7883CA5CD040C5532F
:101CF000DF4F8883CB5CD040C453DF4F9883CC5CEC
:101D0000D040C753DF4F688179818A819B81C95C4C
:101D1000D0400E94A1149B01AC01C753DF4F8882C1
:101D2000C95CD040C653DF4F9882CA5CD040C553CF
:101D3000DF4F0883CB5CD040C453DF4F1883CC5CAB
:101D4000D040C753DF4F688179818A819B81C95C0C
:101D5000D0400E94A1149501A601C753DF4F6883AC
:101D6000C95CD040C653DF4F7883CA5CD040C553AE
:101D7000DF4F8883CB5CD040C453DF4F9883CC5C6B
:101D8000D040C753DF4F688179818A819B81C95CCC
:101D9000D0400E94D112C753DF4F6883C95CD04046
:101DA000C653DF4F7883CA5CD040C553DF4F88836A
:101DB000CB5CD040C453DF4F9883CC5CD040C7533A
:101DC000DF4F688179818A819B81C95CD0400E9404
:101DD000BB137F936F938DEF93E09F938F938E014F
:101DE0000F5F1F4F1F930F930E941515B801CD521F
:101DF000DF4F8881C35DD040CC52DF4F9881C45DF6
:101E0000D0400E948E0B83E1E5E8F2E0DE01AB54A6
:101E1000BF4F01900D928A95E1F7C853DF4F1882AA
:101E2000C85CD040BE016B547F4FCD52DF4F8881DC
:101E3000C35DD040CC52DF4F9881C45DD0400E943A
:101E40008E0B0F900F900F900F900F900F90B12C62
:101E500008581F4F9EE6A92E25ECC22EDD24D394F0
:101E600032E6E32E34E0F32E2B10AFC186E3E9E92E
:101E7000F2E0D80101900D928A95E1F7F801F6960B
:101E800086E0DF011D928A95E9F7B801CD52DF4F58
:101E90008881C35DD040CC52DF4F9881C45DD04073
:101EA0000E948E0BC952DF4FE881F981C75DD04097
:101EB0000FB6F894FEBF0FBEEDBFC952DF4F2881A9
:101EC0003981C75DD0400FB6F8943EBF0FBE2DBF1D
:101ED000C852DF4F0FB6F894DEBF0FBECDBFDF9103
:101EE000CF911F910F91FF90EF90DF90CF90BF9017
:101EF000AF909F908F907F906F905F904F903F90AA
:101F00002F900895CF52DF4FE881C15DD040C35379
:101F1000DF4FE883CD5CD04060CD282EA7CDC70130
:101F20000196880F991F9201280F391FC753DF4F61
:101F300039832883C95CD040D9018D909C90EE0CE8
:101F4000FF1CE40CF51CF70160817181A4018C2D4C
:101F50009B2D0E94D00A029789F4D7019C9111967B
:101F60008C91119711969C928E9212969C93C753C6
:101F7000DF4FE881F981C95CD0408183A394EA2CCA
:101F8000F12CE614F7045CF2D201ED90FC90C15301
:101F9000DF4FE881F981CF5CD04060817181A7017A
:101FA0008C2D9B2D0E94D00A0297A1F4CF52DF4FB7
:101FB000A881B981C15DD0409C91CB52DF4FE881AF
:101FC000F981C55DD0408081ED92FC92D2019C9355
:101FD00011968C93D394F4CDA12CD1CF4801880CC9
:101FE000991C840C951CF40180819281890F99279A
:101FF000991F9C01990F440B550BC753DF4F288342
:1020000039834A835B83C95CD040CA01B9010E940D
:10201000EC1320E030E040E351E4C753DF4F688326
:10202000C95CD040C653DF4F7883CA5CD040C553EB
:10203000DF4F8883CB5CD040C453DF4F9883CC5CA8
:10204000D040C753DF4F688179818A819B81C95C09
:10205000D0400E94A11420E030E040E05FE3C7538D
:10206000DF4F6883C95CD040C653DF4F7883CA5CBA
:10207000D040C553DF4F8883CB5CD040C453DF4F83
:102080009883CC5CD040C753DF4F688179818A81C7
:102090009B81C95CD0400E94A114362EC153DF4FF2
:1020A0007883CF5CD040CF52DF4F8883C15DD04072
:1020B000692ED40111968C91F8013196EE0FFF1F15
:1020C000E40DF51D9181891B990B9C01990F440B1F
:1020D000550BC753DF4F288339834A835B83C95C21
:1020E000D040CA01B9010E94EC1320E030E040E387
:1020F00051E4C753DF4F6883C95CD040C653DF4FFC
:102100007883CA5CD040C553DF4F8883CB5CD04016
:10211000C453DF4F9883CC5CD040C753DF4F6881F6
:1021200079818A819B81C95CD0400E94A1149B0166
:10213000AC01C753DF4F3882C95CD040C153DF4F79
:102140008881CF5CD040C653DF4F8883CA5CD040C3
:10215000CF52DF4F9881C15DD040C553DF4F988388
:10216000CB5CD040C453DF4F6882CC5CD040C753B7
:10217000DF4F688179818A819B81C95CD0400E9450
:10218000A1149B01AC01C753DF4FA882C95CD040AA
:10219000C653DF4FB882CA5CD040C553DF4FC882F8
:1021A000CB5CD040C453DF4FD882CC5CD040C75307
:1021B000DF4F688179818A819B81C95CD0400E9410
:1021C000D1125B016C01739406CDC353DF4FA8811C
:1021D000B981CD5CD04011968C911197F6018A9D02
:1021E000E019F1091124CF019F93EF938C918A9DFF
:1021F000C001112481549F4F9F938F93FF92EF92C0
:102200001F930F930E941515B801CD52DF4F88819F
:10221000C35DD040CC52DF4F9881C45DD0400E9456
:102220008E0BB394C353DF4F28813981CD5CD040EE
:102230002E5F3F4FC353DF4F39832883CD5CD0409F
:102240004DB75EB7485F5F4F0FB6F8945EBF0FBEE5
:102250004DBF0ACECF93DF93CDB7DEB72A970FB627
:10226000F894DEBF0FBECDBF9C0197E0E5EDF2E034
:10227000DE01119601900D929A95E1F7FE013896D4
:1022800083E0DF011D928A95E9F7BE016F5F7F4F02
:10229000C9010E948E0B2A960FB6F894DEBF0FBEBE
:1022A000CDBFDF91CF9108950F931F93CF93DF930D
:1022B000CDB7DEB72A970FB6F894DEBF0FBECDBFFD
:1022C000FC0180819181A281B38180959095A09538
:1022D000B09580839183A283B383BF93AF939F9381
:1022E0008F938AE694E09F938F938E010F5F1F4F29
:1022F0001F930F930E941515C8010E94AB110FB6D2
:10230000F894DEBF0FBECDBF2A960FB6F894DEBF9D
:102310000FBECDBFDF91CF911F910F910895109205
:10232000C5008FEC8093C400E0ECF0E08081806C0D
:102330008083E1ECF0E0808188618083E2ECF0E072
:1023400080818E60808308959091C00095FFFCCFBE
:102350008093C60008950F931F93CF93DF93EC01F2
:1023600009900020E9F72197C81BD82F8C01802FF6
:102370008D1B8C1728F0DF91CF911F910F9108953D
:10238000F80181918F010E94A411F1CF8091C000CA
:1023900087FFFCCF8091C600089510927C0086E8EC
:1023A00080937A00089510927A00089580917C00BD
:1023B000807E80937C0080917C006770682B6093A6
:1023C0007C0080917A00806480937A0080917A000A
:1023D00084FFFCCF80917A00806180937A00209105
:1023E00078008091790090E0982F8827820F911DC6
:1023F000089500D00F92CDB7DEB70E9470001B8207
:1024000065E270E08E010F5F1F4FC8010E94A200BD
:10241000F12CCC24C394CE010396B82EA92E80E0D3
:1024200090916F04911116C0811114C080916E04B7
:10243000882329F06B2D7A2D81E00E942F06C11090
:10244000EECFC8010E94310190E080E00F900F9024
:102450000F90089510926F0410926E0480916F0493
:1024600081110AC080916E04811106C06B2D7A2DF6
:1024700090E00E942F06F2CF80916F048823A9F08C
:1024800061E070E0C8010E94A6002FEF83ED90E3A9
:10249000215080409040E1F700C0000063E070E010
:1024A000C8010E94A600D12C19C080916E04882317
:1024B000D1F360E070E0C8010E94A6002FEF83ED29
:1024C00090E3215080409040E1F700C0000063E0BD
:1024D00070E0C8010E94A600DD24D394E12CF11025
:1024E00004C080E794E00E9432016D2D7E2D80E7CC
:1024F00094E00E947E0180916F048F5F80936F044F
:102500009091730481E0FF24F394992309F488CF18
:1025100010926F04F92EC12C82CFE0E7F4E0118213
:10252000108212821382148215820895991B79E019
:1025300004C0991F961708F0961B881F7A95C9F753
:1025400080950895AA1BBB1B51E107C0AA1FBB1FA2
:10255000A617B70710F0A61BB70B881F991F5A952F
:10256000A9F780959095BC01CD01089597FB072EA2
:1025700016F4009407D077FD09D00E94A21207FC40
:1025800005D03EF4909581959F4F08957095619583
:102590007F4F0895EE0FFF1F0590F491E02D0994F1
:1025A0005058BB27AA270E94E8120C9462140E947C
:1025B000541438F00E945B1420F039F49F3F19F452
:1025C00026F40C9451140EF4E095E7FB0C944B1494
:1025D000E92F0E94731458F3BA1762077307840730
:1025E000950720F079F4A6F50C9495140EF4E09577
:1025F0000B2EBA2FA02D0B01B90190010C01CA01BD
:10260000A0011124FF27591B99F0593F50F4503E67
:1026100068F11A16F040A22F232F342F4427585F59
:10262000F3CF469537952795A795F0405395C9F771
:102630007EF41F16BA0B620B730B840BBAF0915029
:10264000A1F0FF0FBB1F661F771F881FC2F70EC0C8
:10265000BA0F621F731F841F48F48795779567959B
:10266000B795F7959E3F08F0B0CF9395880F08F087
:102670009927EE0F9795879508950E94271408F4DF
:1026800081E008950E9456130C9462140E945B141A
:1026900058F00E94541440F029F45F3F29F00C9444
:1026A0004B1451110C9496140C9451140E947314F1
:1026B00068F39923B1F3552391F3951B550BBB2771
:1026C000AA2762177307840738F09F5F5F4F220FB6
:1026D000331F441FAA1FA9F335D00E2E3AF0E0E8AD
:1026E00032D091505040E695001CCAF72BD0FE2FF7
:1026F00029D0660F771F881FBB1F2617370748078B
:10270000AB07B0E809F0BB0B802DBF01FF27935842
:102710005F4F3AF09E3F510578F00C944B140C94A7
:1027200096145F3FE4F3983ED4F3869577956795CA
:10273000B795F7959F5FC9F7880F911D9695879577
:1027400097F90895E1E0660F771F881FBB1F621796
:1027500073078407BA0720F0621B730B840BBA0B54
:10276000EE1F88F7E09508950E94BB136894B1119D
:102770000C94961408950E947B1488F09F5798F04B
:10278000B92F9927B751B0F0E1F0660F771F881F76
:10279000991F1AF0BA95C9F714C0B13091F00E9490
:1027A0009514B1E008950C949514672F782F88271D
:1027B000B85F39F0B93FCCF3869577956795B395B7
:1027C000D9F73EF490958095709561957F4F8F4F26
:1027D0009F4F0895E89409C097FB3EF4909580952B
:1027E000709561957F4F8F4F9F4F9923A9F0F92FD7
:1027F00096E9BB279395F695879577956795B79555
:10280000F111F8CFFAF4BB0F11F460FF1BC06F5F3A
:102810007F4F8F4F9F4F16C0882311F096E911C04C
:10282000772321F09EE8872F762F05C0662371F06D
:1028300096E8862F70E060E02AF09A95660F771F81
:10284000881FDAF7880F9695879597F90895990F5D
:102850000008550FAA0BE0E8FEEF16161706E8076A
:10286000F907C0F012161306E407F50798F0621B8B
:10287000730B840B950B39F40A2661F0232B242B60
:10288000252B21F408950A2609F4A140A6958FEF7F
:10289000811D811D089597F99F6780E870E060E0D1
:1028A00008959FEF80EC089500240A9416161706E9
:1028B00018060906089500240A9412161306140631
:1028C00005060895092E0394000C11F4882352F094
:1028D000BB0F40F4BF2B11F460FF04C06F5F7F4F4C
:1028E0008F4F9F4F089557FD9058440F551F59F033
:1028F0005F3F71F04795880F97FB991F61F09F3FED
:1029000079F087950895121613061406551FF2CF15
:102910004695F1DF08C0161617061806991FF1CF65
:1029200086957105610508940895E894BB2766278C
:102930007727CB0197F908950E94271408F48FEFA9
:1029400008950E94B4140C9462140E94541438F038
:102950000E945B1420F0952311F00C944B140C94FE
:10296000511411240C9496140E94731470F3959FC3
:10297000C1F3950F50E0551F629FF001729FBB2776
:10298000F00DB11D639FAA27F00DB11DAA1F649F12
:102990006627B00DA11D661F829F2227B00DA11DC5
:1029A000621F739FB00DA11D621F839FA00D611D4B
:1029B000221F749F3327A00D611D231F849F600D6C
:1029C000211D822F762F6A2F11249F5750409AF095
:1029D000F1F088234AF0EE0FFF1FBB1F661F771F21
:1029E000881F91505040A9F79E3F510580F00C94EC
:1029F0004B140C9496145F3FE4F3983ED4F3869501
:102A000077956795B795F795E7959F5FC1F7FE2B8B
:102A1000880F911D9695879597F90895DC0101C05F
:102A20006D9341505040E0F70895AEE0B0E0EBE127
:102A3000F5E10C94BD170D891E8986E08C831A83FD
:102A400009838FEF9FE79E838D83AE01475E5F4FC3
:102A50006F89788DCE0101960E9438152F813885B7
:102A6000020F131FF80110822E96E4E00C94D91780
:102A7000AFE0B0E0EEE3F5E10C94AF177C013B0171
:102A80008A01DC0117961C921E92169713968C9160
:102A900081FFBEC19AE0292EFE0131964F01D70178
:102AA00013969C91F30193FD859193FF81913F01D2
:102AB000882309F444C1853239F493FD859193FF4D
:102AC00081913F01853229F4B70190E00E942117DE
:102AD000E6CFB12C412C512CBFE1B51538F08B322B
:102AE00009F188F4803201F1833221F157FC3AC0B8
:102AF00020ED280F2A3040F556FE1FC0B29C200D55
:102B00001124B22E06C08D3291F0803379F768948B
:102B100050F8F30193FD859193FF81913F0181115D
:102B2000DBCF20C0689451F8689452F8F2CF6894D3
:102B300053F8EFCF689454F8ECCF429C200D112449
:102B4000422E689455F8E5CF8E3229F456FCF7C032
:102B5000689456F8DECF8C3619F4689457F8D9CFBC
:102B60008836B9F2982F9F7D95549330C0F0833604
:102B700081F18337A1F1833509F05BC0D801CD9095
:102B8000DD908D016B2D70E056FC02C06FEF7FEF82
:102B9000C6010E940B175C01689457F80AC00C5FCD
:102BA0001F4FEFE3E983AA24A394B12C6401E894B6
:102BB00057F853FE29C0342CA114B10451F5332029
:102BC00009F46DCFB70180E290E00E9421173A949A
:102BD000F6CFD8018C9189830E5F1F4FE4CFF801A7
:102BE000C190D1908F016B2D70E056FC02C06FEF49
:102BF0007FEFC6010E9416175C01D9CFB70180E2B2
:102C000090E00E9421174A944A141B0409F0B0F77F
:102C1000D2CFF60157FC859157FE81916F01B70124
:102C200090E00E94211731103A94B1E0AB1AB1083C
:102C3000C3CF843619F0893609F071C0F80157FE08
:102C400067C061917191819191918F01E52DEF762E
:102C5000DE2E97FF09C090958095709561957F4F06
:102C60008F4F9F4F6894D7F82AE030E0A4010E946C
:102C70005117C82EC818AC2C5D2CD6FE0CC0E89499
:102C800050F8CB1440F4D4FE05C0D2FC03C05D2D37
:102C90005E7E552EAB2C54FE93C0FE01EC0DF11D53
:102CA0008081803309F085C0652D697E562E752D93
:102CB0007870372E53FC93C050FE8DC0BC2CA414EA
:102CC00010F4B40CBA1854FE90C0B70180E390E041
:102CD0000E94211752FE07C088E751FC88E590E06A
:102CE000B7010E942117CB1408F48BC0CA94D12CD1
:102CF0008FEFC81AD80AC80CD91CD6018E916D0165
:102D0000B70190E00E9421178C149D04B1F757CFB2
:102D100061917191072E000C880B990B96CFD52CE1
:102D2000E894D4F82AE0853729F1F52DF97FDF2ED4
:102D30008037A1F058F48835A1F08F36D1F0F70133
:102D4000868197812F96E2E10C94CB178837B9F7EB
:102D5000D4FE02C06894D2F820E10CC06894D4F884
:102D6000F7CF54FE03C02F2F2660D22E20E132E091
:102D700002C028E030E0F801D7FE15C04191519122
:102D8000619171914C875D876E877F878F01A40168
:102D90006C857D858E859F850E945117C82EC81829
:102DA000E894D7F868CF81919191AC0170E060E030
:102DB000E9CF52FC02C0A3947ACFA394A39477CF17
:102DC000852D867809F473CFF6CFB70180E290E0C5
:102DD0000E942117A394A414C0F3312C74CF342C77
:102DE0003A18A41408F46FCFF8CF852D867809F42B
:102DF0007ACF8BE251FE80E257FC8DE2B70190E082
:102E000070CFB70180E390E00E942117BA946BCF96
:102E10008FEF9FEF97CFFC0105906150704001103C
:102E2000D8F7809590958E0F9F1F0895FC016150F3
:102E3000704001900110D8F7809590958E0F9F1FDC
:102E400008950F931F93CF93DF93182F092FEB0152
:102E50008B8181FD09C01FEF0FEF812F902FDF9134
:102E6000CF911F910F91089582FF14C02E813F8151
:102E70008C819D81281739073CF4E881F981CF01C5
:102E800001969983888310838E819F8101969F8309
:102E90008E83E3CFE885F985812F0995892BA1F3EE
:102EA000DACFFA01AA27283051F1203181F1E894D4
:102EB0006F936E7F6E5F7F4F8F4F9F4FAF4FB1E02D
:102EC0003ED0B4E03CD0670F781F891F9A1FA11D28
:102ED000680F791F8A1F911DA11D6A0F711D811D29
:102EE000911DA11D20D009F468943F912AE0269FEE
:102EF00011243019305D3193DEF6CF010895462F4D
:102F00004770405D4193B3E00FD0C9F7F6CF462F2D
:102F10004F70405D4A3318F0495D31FD4052419396
:102F200002D0A9F7EACFB4E0A69597958795779553
:102F30006795BA95C9F700976105710508959B01DA
:102F4000AC010A2E06945795479537952795BA9563
:102F5000C9F7620F731F841F951FA01D08952F923C
:102F60003F924F925F926F927F928F929F92AF9219
:102F7000BF92CF92DF92EF92FF920F931F93CF9366
:102F8000DF93CDB7DEB7CA1BDB0B0FB6F894DEBFFD
:102F90000FBECDBF09942A88398848885F846E8423
:102FA0007D848C849B84AA84B984C884DF80EE806D
:102FB000FD800C811B81AA81B981CE0FD11D0FB676
:102FC000F894DEBF0FBECDBFED010895F894FFCF9A
:102FD000A00000DC427B14E942A4F0F6425CCF0280
:102FE000430A970A430AD712435C8F1B435CCF24E2
:102FF00043299C2E4371FD384371FD434366A64F20
:103000004300005C437B146943A4F076435CCF82A9
:10301000430A978A437BD492435C8F9B435CCFA443
:1030200043299CAE43B8FEB843B8FEC34366A6CF5F
:10303000430000DC437B14E943A4F0F64300D002D4
:10304000440A970A447BD4124400901B4400D024C5
:1030500044CD9C2E44B8FE38445CFF434466A64FE2
:103060004400005C443C7376672077696474683D73
:10307000223130302522206865696768743D22312D
:103080003030252220786D6C6E733D226874747028
:103090003A2F2F7777772E77332E6F72672F323054
:1030A00030302F737667222076696577426F783DDE
:1030B00022302030203131353220353736223E0A59
:1030C0000000000000000000000000000000000000
:1030D00000000000000000000000000000093C7239
:1030E00065637420783D2239362220793D223438B8
:1030F000222077696474683D223936302220686561
:10310000696768743D2234383022207374726F6BA3
:10311000653D22626C61636B22207374726F6B6514
:103120002D77696474683D2231222066696C6C3D9C
:10313000227768697465222F3E0A000000000000B3
:10314000000000000000000000000000000000007F
:103150000000000000093C706F6C79676F6E207092
:103160006F696E74733D22000022207374796C6560
:103170003D2266696C6C3A677265656E3B207374BC
:10318000726F6B653A626C61636B3B207374726F34
:103190006B652D77696474683A32222F3E0A00000D
:1031A00000000000003C2F7376673E0000000046E0
:1031B0006C61736800626C61636B00726564000926
:1031C0003C7465787420783D2239362220793D227E
:1031D00033362220666F6E742D66616D696C793DA1
:1031E00022617269616C2220666F6E742D73697A38
:1031F000653D223230222066696C6C3D22626C751E
:1032000065223E73656374696F6E20253075202DCD
:103210002D20657175697065202575202D2D20255F
:10322000733C2F746578743E0A00093C72656374C0
:1032300020783D2225752220793D22257522207790
:10324000696474683D223622206865696768743D48
:10325000223622207374726F6B653D222573222003
:103260007374726F6B652D77696474683D223122C7
:103270002066696C6C3D222573222F3E0A00093CB2
:10328000636972636C652063783D22257522206333
:10329000793D2225752220723D223130222073741F
:1032A000726F6B653D22626C61636B222073747276
:1032B0006F6B652D77696474683D223222206669E0
:1032C0006C6C3D2267726179222F3E0A00093C74C2
:1032D00065787420783D2239362220793D223535B3
:1032E000362220666F6E742D66616D696C793D22A1
:1032F000617269616C2220666F6E742D73697A65E4
:103300003D223230222066696C6C3D22626C75650C
:10331000223E41495245203A20256920706F75634D
:103320006573206361727265733C2F746578743EB7
:0E3330000A0025752C2025752000256C7800DC
:00000001FF
